:020000040800F2
:10000000E013002089010008910100089301000815
:100010009501000897010008990100080000000000
:100020000000000000000000000000009B0100082C
:100030009D010008000000009F010008A1010008C8
:10004000A3010008A501000811320008000000000B
:100050000000000009090008AB010008AD0100081C
:10006000AF01000800000000B1010008B301000862
:10007000B5010008000000005D1D0008B90100087E
:10008000BB010008BD01000800000000BF0100081E
:10009000C101000800000000000000000000000096
:1000A000000000000000000000000000C301000884
:1000B000C5010008C7010008C9010008CB010008FC
:1000C00000F002F800F050F814A696E8000CB244D4
:1000D000B344DA4501D100F047F8BAE80F000FA6A3
:1000E00096E83000A5EB040504EB0607AAEB07042D
:1000F000A7F101074FEA15154FEA3414A4F10104E2
:10010000AC4201D300F030F813F0010F18BFFB1A16
:1001100043F0010300F001F8DBE71847083A00005C
:10012000283A0000103A24BF78C878C1FAD852079C
:1001300024BF30C830C144BF04680C607047000061
:10014000704700000023002400250026103A28BF35
:1001500078C1FBD8520728BF30C148BF0B60704739
:100160001FB51FBD10B510BD00F045F81146FFF7D3
:10017000F7FF03F0EDF900F063F803B4FFF7F2FFC7
:1001800003BC00F06BF80000134880471348004799
:10019000FEE7FEE7FEE7FEE7FEE7FEE7FEE7FEE737
:1001A000FEE7FEE7FEE7FEE7FEE7FEE7FEE7FEE727
:1001B000FEE7FEE7FEE7FEE7FEE7FEE7FEE7FEE717
:1001C000FEE7FEE7FEE7FEE7FEE7FEE70448054937
:1001D000054A064B70470000F5180008C1000008EA
:1001E000E00D0020E0130020E00F0020E00F0020D1
:1001F000704770477047754600F02CF8AE46050012
:100200006946534620F00700854618B020B5FFF731
:10021000DDFFBDE820404FF000064FF000074FF033
:1002200000084FF0000BAC46ACE8C009ACE8C009D0
:10023000ACE8C009ACE8C00921F007018D46704761
:1002400010B50446AFF300802046BDE81040FFF72C
:1002500094BF0000004870470004002001491820A6
:10026000ABBEFEE7260002007047000082B08DF8AA
:10027000070048F20400C4F20800006800909DF8EE
:10028000070028B1FFE7009840F00100009004E06B
:10029000009820F001000090FFE7009848F2040168
:1002A000C4F20801086002B07047000083B00290F9
:1002B0008DF8071048F22400C4F20800006840F0EE
:1002C000010000909DF8070028B1FFE7029900980F
:1002D0000843009004E00299009888430090FFE7EB
:1002E000009848F22401C4F20801086003B0704786
:1002F00080B582B0019048F20401C4F20801086898
:10030000009000980322CFF2FB1210400090019A57
:10031000107892F801E092F804C0137D40EA0E00D4
:10032000B2F802E040EA0E0040EA0C10B2F80CC04D
:1003300040EA0C00B2F812C040EA0C0040EA8340E8
:10034000D38A1843926940EA4262009810430090B1
:100350000198C08948F21402C4F2080210600198A2
:10036000008A48F20C02C4F208021060019880680A
:1003700048F22C02C4F2080210600098086002B033
:1003800080BD000048F20001C4F2080100200860AE
:1003900048F20401C4F20801086048F20801C4F2FE
:1003A0000801086048F21001C4F20801086048F230
:1003B0001801C4F20801096848F22001C4F20801DA
:1003C000086048F22801C4F20801086048F20C01F4
:1003D000C4F20801086048F21401C4F20801086080
:1003E00048F21C01C4F20801096848F22401C4F271
:1003F0000801086048F22C01C4F208010860704747
:1004000083B0029002998868CB680A6949691843E9
:10041000104308430190029908684A68896940EAD4
:10042000027040EA41510198084301900020CFF248
:100430001E00009000980021C0F2E11108430090D6
:1004400048F20001C4F208010868009A9043019A3A
:100450001043086003B0704781B0009000990020FD
:10046000086000994860009988600099C860009908
:100470000861009948610099886101B070470000E7
:1004800082B0ADF80600BDF8060040F6E4414843EE
:100490001121C1F20101A0FB0110000AADF8040016
:1004A000BDF8040049F69A11C1F69911A0FB01109C
:1004B000ADF80200BDF8020002B0704781B00090B4
:1004C00000990020087000994870009948800099B0
:1004D000087100998860009988810099C881009905
:1004E000088200994882009908750099C88200998D
:1004F000886101B07047000082B08DF8070048F2B3
:100500003801C4F20D01086820F03F0000909DF80A
:10051000070000F03F020098104300900098086028
:1005200002B0704780B584B000F0C8FF01F06AF9EE
:10053000012001F05BF801F081F8012802D0FFE70B
:10054000FFE7FEE70220032100F01AFF012000F080
:100550000BFF00F049FF012802D0FFE7FFE7FEE7AD
:100560000020029000F07EFF0120039000F06EFF5B
:1005700003990820019001F0D1F8182000F09AFAB0
:100580000198029901F0CAF803994FF0006001F058
:10059000C5F83620FFF7B0FF4FF4807000F078FF09
:1005A000039940F21010C0F2100001F0B7F804B047
:1005B00080BD000082B08DF807000020C4F2090061
:1005C000006800909DF8070028B1FFE7009840F010
:1005D0000800009004E0009820F008000090FFE779
:1005E00000980021C4F20901086002B070470000C1
:1005F00082B08DF807000021C4F20901086800905C
:10060000009820F0020000909DF807200098104408
:1006100000900098086002B07047000080B500F0BC
:10062000B5FA00F09FFA00F007FB002080BD000043
:100630000821C4F20901002008600021C4F2090168
:100640000860704786B08DF817008DF81610049278
:100650008DF80F309DF8160038B9FFE748F2080012
:10066000C4F202000068029006E048F20C00C4F2F6
:10067000020000680290FFE702989DF8171000EB57
:10068000011000900098806843F6F0718843049A46
:100690006FF00F0101EB021108439DF80F100843A2
:1006A000019001980099886006B0704781B08DF87C
:1006B00003008DF802109DF8020050B1FFE79DF88D
:1006C00003100120884048F22801C4F202010860AA
:1006D00009E09DF803100120884048F22C01C4F283
:1006E00002010860FFE701B07047000082B001908E
:1006F00000910198007A032805D1FFE7019800686E
:100700000099086009E0019A106851690139127A6C
:100710009140084400990860FFE70198007C042894
:1007200006D1FFE7019840680C300099486014E05A
:100730000198407A032805D1FFE7019840680099A5
:10074000486009E0019A506851690139527A914034
:10075000084400994860FFE7FFE701990A7A4B7A5D
:10076000C86840EA837040EA82600A6A1043CA6936
:1007700010438A6910434B696FF00F0202EB0312BA
:100780001043097C08430099886002B0704700005C
:1007900080B548F20403C4F202030020186048F256
:1007A0000801C4F20201086048F21401C4F2020117
:1007B000086048F21801C4F202014FF0FF300860EF
:1007C00048F22001C4F20201086048F22C02C4F28F
:1007D0000202106048F23402C4F20202106048F2D1
:1007E0003C02C4F20202106048F24C0CC4F2020C4B
:1007F0000122CCF800201A60086048F22801C4F2F7
:1008000002010860052000F065FA80BD82B08DF815
:1008100006008DF805109DF805000138014600918D
:10082000072868D80099DFE801F0040E1825323F48
:100830004C5948F20000C4F20200006800F00100C8
:100840008DF807005BE048F24C00C4F2020001683A
:10085000012088438DF8070051E048F22800C4F2D7
:10086000020000689DF80610C84000F001008DF8F5
:10087000070044E048F22000C4F2020000689DF83E
:100880000610C84000F001008DF8070037E048F27C
:100890001000C4F2020000689DF80610C84000F085
:1008A00001008DF807002AE048F21800C4F20200A7
:1008B00000689DF80610C84000F001008DF80700A0
:1008C0001DE048F23000C4F2020000689DF80610F6
:1008D000C84000F001008DF8070010E048F2380031
:1008E000C4F2020000689DF80610C84000F0010044
:1008F0008DF8070003E000208DF80700FFE79DF862
:10090000070002B07047000080B50B200721FFF7F9
:100910007DFF38B9FFE70B2001210A220323FFF7EF
:1009200091FE06E00B2000210A220323FFF78AFE36
:10093000FFE709200721FFF769FF38B9FFE7092022
:1009400001210A220323FFF77DFE06E00920002192
:100950000A220323FFF776FEFFE780BD80B584B04F
:100960008DF80F00029140F60000C2F2000048F23C
:100970000801C4F2020108600298006868B1FFE74C
:10098000029800689DF80F2040F60001C2F20001B5
:1009900001EB0211FFF7AAFEFFE70298406880B161
:1009A000FFE748F20C00C4F2020000689DF80F1047
:1009B00000EB01100190029840680199FFF796FE44
:1009C000FFE70298806840F0010048F20401C4F299
:1009D000020108600298407B01280AD1FFE79DF8D8
:1009E0000F100120884048F21801C4F2020108608B
:1009F00009E09DF80F100120884048F21C01C4F264
:100A000002010860FFE79DF80F10012000FA01F1D4
:100A100048F22402C4F2020211609DF80F108840CF
:100A200048F22801C4F2020108600298807B50B9A4
:100A3000FFE79DF80F100120884048F23401C4F20E
:100A40000201086009E09DF80F100120884048F27B
:100A50003001C4F202010860FFE70298007B012820
:100A60000AD1FFE79DF80F100120884048F23801B5
:100A7000C4F20201086009E09DF80F1001208840CF
:100A800048F23C01C4F202010860FFE704B080BDF7
:100A900081B000900099002008600099486000999A
:100AA000886000990873009948730099887301B0B1
:100AB0007047000081B08DF803009DF8030048F2F4
:100AC0000001C4F20101086001B0704783B000204A
:100AD00002900190FFE7019809280FDCFFE70199D8
:100AE00040F26040C2F2000030F811100298084451
:100AF0000290FFE7019801300190ECE702984CF674
:100B0000CD41CCF6CC41A0FB0110C008ADF80200ED
:100B1000BDF8020003B0704780B584B04FF4800088
:100B20000121009100F0FAFD40F63440C2F20000CD
:100B3000019000F01FFB00980199802203920A8027
:100B4000887000220A728872022048720020C4F263
:100B50000B00029000F0D0F90298039900F0F4FA2B
:100B600004B080BD80B582B04FF480200121009197
:100B700000F0D4FDFFF75CFD00200190FFF738FD89
:100B80000098FFF717FD019802B080BDF0B587B05F
:100B900040F21451C2F20001019140F20207C2F288
:100BA00000070F600826C4F209064E60012505956E
:100BB0000D724FF0030E81F809E04FF08854CC60BD
:100BC00081F810E04FF00A0CC1F814C0002306931E
:100BD0008B614FF48022CA614FF40010086240F22A
:100BE000E041C2F2000102910F604E600D7281F887
:100BF00009E0CC6081F810E0C1F814C08B61CA61D3
:100C0000086240F20450C2F200000390FFF740FF78
:100C1000019B029A039906980B604A600873487317
:100C200088730B200490FFF799FE04980599FFF74D
:100C30003DFD069807B0F0BD80B586B048F20000D3
:100C4000C0F200200121049100F068FD48F200008C
:100C5000C4F20C00019000F039F940F23850C2F2B1
:100C60000000029000F086FA01980299049A0A8026
:100C70008A70002205928A7200F03EF948F2000064
:100C8000C4F20700039000F0DDFF0398059900F01F
:100C90006DFE0398059A40F24451C2F200011F23F1
:100CA0004B8063238B80CA800A814A818A81CA81F2
:100CB0000A824A828A82CA8200F07CFF0398049AE0
:100CC000022100F0A3FF0398049900F059FF059852
:100CD00006B080BD81B08DF803009DF9031001F0CE
:100CE0001F02012090404A094EF28021CEF20001FD
:100CF00041F8220001B0704781B08DF803009DF9E2
:100D0000031001F01F02012090404A094EF28011A9
:100D1000CEF2000141F8220001B0704781B08DF899
:100D200003009DF9031001F01F02012090404A09C1
:100D30004EF20011CEF2000141F8220001B07047DE
:100D400081B08DF803009DF9031001F01F0201200E
:100D500090404A094EF20011CEF2000141F8220003
:100D600001B0704781B08DF803009DF9031001F0C8
:100D70001F02012090404A094EF20011CEF20001FC
:100D800041F8220001B0704781B08DF803009DF951
:100D9000031001F01F02012090404A094EF2001199
:100DA000CEF2000141F8220001B0704780B58CB04E
:100DB000ADF82E00BDF92E00463802F0F1FC0A9085
:100DC0000A9809900A9940F64050C2F20000029039
:100DD000006802F0FDFB0146029801600021C4F2A8
:100DE000C8210891006802F071FC48B9FFE740F69D
:100DF0004051C2F200010020C4F2C8200860FFE7A1
:100E000040F64050C2F2000000680021CCF2C82138
:100E100002F055FC48B9FFE740F64051C2F200012C
:100E20000020CCF2C8200860FFE740F64050C2F234
:100E3000000000684CF6CD41C3F6CC5102F030FD05
:100E400007900A9840F64451C2F2000101910968E6
:100E500002F0F2FD4DF20A71C3F6234102F020FDCB
:100E6000019906900A9808600998079902F0B0FB6A
:100E7000069902F0ADFB05904FF080400490059973
:100E8000084602F0A5FB0021C4F2482102F0A0FBB5
:100E900003900398002102F012FC18B9FFE700202C
:100EA0000390FFE703980021C4F2C82102F00EFC72
:100EB00028B9FFE70020C4F2C8200390FFE7039899
:100EC00002F052FC00F072F90CB080BD81B00090CD
:100ED000009900204860009988600099C8600099D6
:100EE000886100994861009908600099086100993B
:100EF000C86101B0704700008FB00E900D910E9840
:100F000040680C900E9880680B900E98C0680A900C
:100F10000E98006909900E98406908900E988069B3
:100F200007900E98C069069000200490012103915B
:100F3000032102914FF00111019100900D9800885A
:100F40000590FFE70598002869D0FFE79DF8140099
:100F5000C007002852D0FFE70C98039988430D99E9
:100F60008978049A914008430C900B980299884321
:100F70000D99097A049A5200914008430B900A98FF
:100F8000039988430D99897A049A914008430A90FD
:100F90000998019988430D99049A02F1100CCB78B5
:100FA000097903FA0CF31843914008430990089813
:100FB000019988430D99049A02F1100C4B798979B3
:100FC00003FA0CF3184391400843089007980299DC
:100FD00088430D99497A049A52009140084307903A
:100FE0000698039988430D99C979049A914008435A
:100FF00006900299009808430090FFE7039840008C
:10100000039002988000029001984000019004989B
:1010100001300490FFE705984008059092E70D988D
:10102000008805900E9B059840F01F010022C4F235
:101030000C02934208BF084605900E9B009840F2B0
:10104000FF310143934208BF084600900E984FF0CD
:10105000FF3190420B4608BF6FF01F030C981840F9
:101060000C900E9890420B4608BF6FF01F030A9831
:1010700018400A900E9890420B4604BF4FF600436A
:10108000CFF6FF730B9800EA03000B900E98904286
:101090000B4608BF6FF01F130998184009900E986F
:1010A00090420B4608BF6FF01F1308981840089035
:1010B0000E9890420B4604BF4FF60043CFF6FF73E5
:1010C000079800EA030007900E98904208BF6FF05F
:1010D0001F01069808400690059A0E9948689043AB
:1010E0004860009A0E99886890438860059A0E9926
:1010F000C8689043C86009980E99086107980E99CE
:10110000886108980E99486106980E99C8610A98F6
:101110000E99C8600B980E9988600C980E994860DB
:101120000FB0704782B001900091009A019942F08F
:101130001F000023C4F20C03994208BF024608684E
:101140009043086002B0704782B00190009100980F
:1011500001990968084301990023C4F20C034FF078
:10116000FF32994208BF6FF01F021040086002B0C2
:101170007047000081B0009000994FF6FF70088022
:101180000099002088700099C87000990871009932
:101190004871009988710099C87100990872009986
:1011A00048720099887201B07047000080B582B023
:1011B000ADF80600BDF80600092804DCFFE70A20A8
:1011C000ADF8060009E0BDF80600652804DBFFE77E
:1011D0006420ADF80600FFE7FFE7BDF8060000EB6E
:1011E0008000000245F62941C0F28F21A0FB0110CA
:1011F0000090009940F20000C2F2000001800288D5
:101200000020C4F20800002100F094FD02B080BD6F
:1012100080B588B04FF400100121019100F07EFAF2
:1012200048F20000C4F20A000390FFF74FFE05A841
:101230000290FFF79FFF019A029903983F230493BE
:10124000ADF814308DF8162000238DF81C308DF881
:101250001E2002228DF81D20FFF74EFE03980499F0
:10126000FFF760FF08B080BD80B584B08DF80F0037
:101270009DF80F0000F03F008DF80F000020029055
:101280009DF80F00C00728B1FFE7029840F0010069
:101290000290FFE79DF80F008007002805D5FFE7C3
:1012A000029840F002000290FFE79DF80F0040070F
:1012B000002805D5FFE7029840F004000290FFE700
:1012C0009DF80F000007002805D5FFE7029840F0C1
:1012D00008000290FFE79DF80F00C006002805D522
:1012E000FFE7029840F010000290FFE79DF80F0022
:1012F0008006002805D5FFE7029840F02000029004
:10130000FFE7029948F20000C4F20A000190FFF7DB
:101310001BFF0198029A3F219143FFF703FF04B09E
:1013200080BD000080B584B04FF4800001210191A0
:1013300000F0F4F90020C4F20B000290FFF7C6FDA4
:1013400040F64C40C2F200000390FFF713FF019BF0
:10135000029803990B808B7002220A728B724A7278
:10136000FFF7CAFD04B080BD81B08DF803009DF881
:1013700003008821C4F24021086001B070470000DA
:1013800083B08DF80B0001910C21C4F202010868B2
:101390000090009820F0030000909DF80B2000982A
:1013A00010430090009808600421C4F2020108680C
:1013B0000090009820F470600090019A009840EA34
:1013C00002200090009808608820C4F24020006845
:1013D00040B1FFE78C21C4F24021012008600020C9
:1013E0000860FFE703B0704780B584B00020039029
:1013F000FFE7212000F0CEF88DF80A0003980130B5
:101400000390FFE703990020490A0229019007D8B9
:10141000FFE79DF80A00B0FA80F040090190FFE76D
:101420000198C0070028E4D1FFE7212000F0B2F8BE
:1014300020B1FFE701208DF80B0003E000208DF8BC
:101440000B00FFE79DF80B0004B080BD81B08DF864
:1014500003009DF8030040F28811C4F240210860A7
:1014600001B0704782B08DF807000C21C4F2020170
:1014700008680090009820F0F00000909DF8072088
:10148000009840EA021000900098086002B070478F
:1014900082B0ADF806000C21C4F202010868009089
:1014A000009820F440700090BDF80620009810438A
:1014B00000900098086002B07047000080B584B0CA
:1014C0001C21C4F202011020C0F60000086048F29E
:1014D0003800C4F20D0000680390039800F03F004C
:1014E000014602913F2800F23C800299DFE801F0BA
:1014F0002B39393939393939392039393939393983
:10150000393920393939393939393920393939397D
:10151000393939392039393939393939392E39395F
:101520003939393939392E39393939393939392E41
:10153000039820F03F0048F23801C4F20D01086022
:1015400000F006F924E000F003F921E000F000F9D2
:10155000039820F03F0048F23801C4F20D01086002
:1015600016E0039820F03F000390039840F0360007
:101570000390039848F23801C4F20D01019108600C
:1015800000F0E6F80199039820F03F000860FFE7BB
:1015900004B080BD83B08DF80B009DF80B0000F007
:1015A000E000202806D1FFE70020C4F20200006816
:1015B000019006E048F23C00C4F20D000068019082
:1015C000FFE701989DF80B1001F01F01C840C0070C
:1015D00020B1FFE701208DF8030003E000208DF823
:1015E0000300FFE79DF8030003B0704782B08DF859
:1015F00007000821C4F20201086820F00300086017
:101600009DF8070001460091012804D0FFE70098EB
:10161000022808D00FE00821C4F20201086840F057
:101620000100086008E00821C4F20201086840F0E7
:101630000300086000E0FFE702B0704780B584B0A7
:1016400000200390FFE72220FFF7A4FF8DF80A0097
:10165000039801300390FFE703990020490A02290B
:10166000019007D8FFE79DF80A00B0FA80F0400922
:101670000190FFE70198C0070028E4D1FFE722208E
:10168000FFF788FF20B1FFE701208DF80B0003E092
:1016900000208DF80B00FFE79DF80B0004B080BD23
:1016A00081B08DF803009DF8030040F2D871C4F2B8
:1016B000B031086001B0704780B584B0002003905D
:1016C000FFE71720FFF766FF8DF80A000398013047
:1016D0000390FFE703990020490A0229019007D8E7
:1016E000FFE79DF80A00B0FA80F040090190FFE79B
:1016F0000198C0070028E4D1FFE71720FFF74AFF51
:1017000020B1FFE701208DF80B0003E000208DF8E9
:101710000B00FFE79DF80B0004B080BD82B0019084
:101720008DF803109DF8030040B1FFE7019A1C21DA
:10173000C4F2020108681043086007E0019A1C2106
:10174000C4F20201086890430860FFE702B07047E6
:1017500080B51C21C4F202011020C0F60000086010
:101760000120FFF79DFFFFF7A7FF0C21C4F2020144
:10177000002008600421C4F2020108600821C4F2BC
:10178000020108601021C4F2020108601421C4F2B1
:10179000020108602021C4F2020108602421C4F281
:1017A000020108602821C4F2020108602C21C4F261
:1017B0000201086080BD000080B582B004200121D4
:1017C000FFF7ACFF40F66840C2F200000221019131
:1017D00001700521417040F67441C2F200011022EF
:1017E0008A6020234B600A6000F09EFE1F2001F0FB
:1017F000CDFD00F0CDFE0198FFF7A2FA00F08AFDC2
:1018000002B080BD85B00C20C4F2020000688007E1
:10181000002806D5FFE741F20020C0F27A000490CC
:1018200005E041F20020C0F27A000490FFE70C20AE
:10183000C4F202000068C00720B1FFE70498400826
:101840000490FFE7049803900C20C4F202000068A3
:10185000400700280DD5FFE70420C4F2020000680D
:10186000C0F303200130019001990398484303908D
:10187000FFE70C20C4F202000068C0F3012001461B
:10188000009140B1FFE7009801280ED0FFE70098D3
:1018900002281CD023E040F21801C2F2000141F2FC
:1018A0000020C0F27A00086021E003980C21C4F205
:1018B00002010968C1F303110131B0FBF1F002909C
:1018C000029840F21801C2F2000108600FE040F2F5
:1018D0001801C2F200014FF40040086007E040F236
:1018E0001801C2F2000149F640400860FFE705B068
:1018F0007047000080B540F20000C0F600004EF6D0
:101900000851CEF2000108601C21C4F2020110202F
:1019100008600C21C4F20201002008600421C4F216
:10192000020108600821C4F2020108601021C4F21B
:10193000020108601421C4F2020108601821C4F2F7
:10194000020108602021C4F2020108602421C4F2CF
:10195000020108602821C4F2020108602C21C4F2AF
:1019600002010860FFF74EFF80BD000083B00290C7
:101970008DF807102420C4F202000068009002983D
:101980000021C4F2070188420ED1FFE7009820F041
:10199000FF0000909DF80710009808430090009801
:1019A00040F0807000902EE0029848F20001C4F2EE
:1019B000070188420FD1FFE7009820F47F40009094
:1019C0009DF80710009840EA01200090009840F030
:1019D0000070009016E002980021C4F208018842CD
:1019E0000FD1FFE7009820F47F0000909DF80710CA
:1019F000009840EA01400090009840F0806000901C
:101A0000FFE7FFE7FFE700982421C4F20201086026
:101A100003B0704785B00490039103994888CA8841
:101A200010430A8910434A8910438A8940EA821088
:101A3000CA891043098A084301900398808828B115
:101A4000FFE7019840F480700190FFE70398008859
:101A5000029001980499029A01EB820108620399AD
:101A6000488AC98A084300900398808A28B1FFE712
:101A7000009840F004000090FFE70398008B28B125
:101A8000FFE7009840F010000090FFE700980499ED
:101A9000029A01EB8201086605B0704785B0049098
:101AA00003910399488800018A8840EA8200CA8825
:101AB00010430A8940EA02304A8940EA8220898933
:101AC00040EA01200190039800880290019804994F
:101AD000029A01EB820108630399CA89088A40EAE5
:101AE0000220498A0843009000980499029A01EB69
:101AF0008201086405B0704781B000900099002011
:101B0000088000994880009988800099C8800099D1
:101B1000088100994881009988810099C8810099BD
:101B200008820099488201B07047000081B000909F
:101B300000990020088000994880009988800099C9
:101B4000C88000990881009948810099888100998E
:101B5000C88100990882009948820099888200997A
:101B6000C88200990120088301B0704782B00190BB
:101B700000910098C0430199486502B07047000089
:101B800083B002908DF807100298C06800909DF80D
:101B9000070028B1FFE7009840F00100009004E042
:101BA000009820F001000090FFE700980299C860BB
:101BB00003B0704784B003900291029800880399A3
:101BC00008600298408803994860029880880399C9
:101BD00088600299C8880A8910434A8910438A8913
:101BE0001043C9890843019001980399C86002997C
:101BF0000A8A488A40EA02108A8A1043C98A08433E
:101C0000009000980399086504B0704784B0039071
:101C100002918DF807200398C06D00909DF8070091
:101C200028B1FFE7029900980843009004E0029968
:101C3000009888430090FFE700980399C86504B0B6
:101C40007047000081B0009000990020C8600099A2
:101C500008600099486000998860009908620099BE
:101C60004862009988620099C862009908630099E7
:101C70004863009988630099C863009908660099D1
:101C80004866009988660099C866009908610099BD
:101C90004861009988610099C861009908670099B6
:101CA0004867009988670099C86700990864009997
:101CB0004864009988640099C8640099086500998F
:101CC0004865009988650099C86501B070470000B3
:101CD00083B0029001910298406D0199084204D1AD
:101CE000FFE700208DF8030003E001208DF80300DA
:101CF000FFE79DF8030003B07047000084B0039035
:101D000002918DF807200398806D00909DF80700E0
:101D100028B1FFE7029900980843009004E0029977
:101D2000009888430090FFE700980399886504B005
:101D30007047000083B002908DF80710ADF80420C2
:101D400002989DF8071000EB810010300090BDF85C
:101D500004000099086003B07047000080B50020BF
:101D6000C4F207000121FFF7B3FF70B3FFE70020C3
:101D7000C4F207000121FFF7F9FE40F64040C2F22D
:101D80000000006868B9FFE70020C4F20B00802162
:101D9000FFF7DAF940F64041C2F200010120086085
:101DA0000CE00020C4F20B008021FFF7BBF940F6E5
:101DB0004041C2F2000100200860FFE740F6DE511A
:101DC000C2F2000101200870FFE780BD80B586B037
:101DD0004FF4803001210591FFF7A0FC0020C4F2F0
:101DE00008000490FFF72EFF049840F6C651C2F297
:101DF0000001002203924A8040F201538B80CA8086
:101E00000A814A818A81CA810A824A828A82CA8276
:101E1000FFF7D0FE40F69850C2F200000190FFF7A5
:101E200085FE0199039A04984A804FF440634B81E0
:101E30000A80FFF7EFFD0399049840F20002C2F216
:101E400000021288FFF776FF40F6B250C2F200009F
:101E50000290FFF751FE0299039A0498059B4A806D
:101E60004FF0020CA1F804C0CB800A81A1F80AC08F
:101E70008B810A80FFF712FE03990498FFF776FD25
:101E800004980599FFF77CFE06B080BD80B584B04C
:101E90004FF4804001210391FFF740FC0020C4F281
:101EA00007000290FFF7CEFE029800210191FFF794
:101EB0005DFD019A029840F68051C2F200010A804D
:101EC00041F63F734B8040F69F738B80CA800A8136
:101ED0004A818A81CA810A824A828A82CA82FFF73B
:101EE00069FE02980399FFF741FE0298039A114692
:101EF000FFF704FF02980399FFF742FE0E20FEF75A
:101F000031FF04B080BD000082B001901021C4F206
:101F1000020108680090009840F4807000900198D9
:101F20000278009810430090009840F00400009060
:101F3000009808600421C4F202010868009000982B
:101F400040F00100009001984278009840EA0210A9
:101F5000009000980860FFE70020C4F202000068CB
:101F600000F00100012801D0FFE7F5E702B070475B
:101F700080B584B00020ADF80E0040F66A40C2F291
:101F800000004188ADF80C108188ADF80A10C188B6
:101F9000ADF80810407801460191202804D0FFE7F1
:101FA000019821281AD042E0BDF80800072810D176
:101FB000FFE7BDF8082040F2D841C2F2000142F22A
:101FC0008903C0F60003002001F020F8ADF80E00F0
:101FD00003E00220ADF80E00FFE72CE0BDF808009A
:101FE00007281FD1FFE7BDF80A0040F2D841C2F22E
:101FF000000100F0CFF8ADF80E00BDF80E0080B97A
:10200000FFE7BDF8082040F2D841C2F2000142F2D9
:102010000953C0F60003002000F0C2FFADF80E0027
:10202000FFE703E00220ADF80E00FFE703E0012028
:10203000ADF80E00FFE7BDF80E0008BBFFE7BDF8E6
:102040000800E8B9FFE740F66A40C2F200000078F5
:102050000006002808D5FFE70023184619461A464F
:1020600000F0D4FF009007E00023184619461A46F6
:1020700000F096FF0090FFE70098ADF80E00FFE734
:10208000BDF80E0004B080BD80B586B08DF8170095
:102090000491039240F66A40C2F200004078202882
:1020A0000BD1FFE740F66A40C2F200008088049935
:1020B00000F08EF9ADF80A0003E00220ADF80A0046
:1020C000FFE7BDF80A0048B9FFE79DF817000023B5
:1020D00019461A4600F064FF019003E0BDF80A00BB
:1020E0000190FFE7019880B206B080BD80B586B050
:1020F000ADF81600ADF81410ADF8122000200390D2
:10210000ADF806009DF8160020B1FFE70120ADF8FC
:10211000060020E0BDF81600000A014600910128E3
:1021200004D0FFE70098022808D00FE040F25F00DB
:10213000C2F200000390122002900BE040F21C005B
:10214000C2F2000003904320029003E00120ADF8AA
:102150000600FFE7FFE7BDF80600B0B9FFE7029809
:10216000BDF81210884204D9FFE7BDF812000290B2
:10217000FFE70399029A42F20953C0F600030020D8
:1021800000F00EFFADF80600FFE7BDF8060006B050
:1021900080BD000082B0ADF804000091BDF80400DD
:1021A00020B1FFE70220ADF806000CE0009940F6F0
:1021B0004442C2F20002106852684A60086000207F
:1021C000ADF80600FFE7BDF8060002B0704700005A
:1021D00080B584B0039002918DF80720039802998E
:1021E00000F014F940F65C42C2F2000200201081B7
:1021F0009DF80710B1FA81F149094902518104B0F3
:1022000080BD000080B584B08DF80D000291019270
:102210000298019900F03CF8ADF80200BDF8020008
:1022200040B1FFE740F65C41C2F200014FF400709C
:102230004881FFE740F65C40C2F20000408980B967
:10224000FFE740F65C40C2F200000168426842F2DB
:102250000523C0F60003032000F0D8FEADF80E0001
:1022600003E00020ADF80E00FFE7BDF80E0004B05B
:1022700080BD000083B08DF80B000191009240F604
:102280005C41C2F200010020088103B070470000E9
:1022900080B586B0059004910498062830D3FFE7F6
:1022A00000208DF80D000290FFE70298052822DC3F
:1022B000FFE705980299405C8DF807009DF807003C
:1022C00031280CD1FFE70298C0F10501012000FA86
:1022D00001F19DF80D0008438DF80D0006E09DF812
:1022E0000700302801D0FFE705E0FFE7FFE702988D
:1022F00001300290D9E79DF80D00FEF7B5FFFFE72A
:102300000598049900F03EF8ADF80E00002006B0E4
:1023100080BD000080B584B000F046F9ADF80E0035
:10232000BDF80E0050BBFFE7012001900521009190
:102330000022029200F0BEFB0099029A022000F0F7
:10234000B9FB0199029A032000F0B4FB40F65C400F
:10235000C2F20000408980B9FFE740F65C40C2F25B
:1023600000000168426842F20523C0F60003032022
:1023700000F04CFEADF80E00FFE7FFE7BDF80E00E1
:1023800004B080BD80B584B00390029140F65C40FB
:10239000C2F200000089ADF80600BDF8060098B949
:1023A000FFE740F65C41C2F200014FF40070088183
:1023B0000399029A42F27523C0F60003012000F04F
:1023C000EFFDADF80600FFE7BDF8060004B080BDE4
:1023D00082B0ADF804000091BDF8040020B1FFE721
:1023E0000220ADF806000CE0009908684A6840F643
:1023F0004441C2F200014A6008600020ADF80600C6
:10240000FFE7BDF8060002B07047000082B00190FF
:102410000091019840F65C41C2F20001086000980A
:102420004860002002B0704780B582B08DF805008A
:10243000ADF80210ADF800209DF8050002280BD180
:10244000FFE7BDF8020038B9FFE79DF8000000F093
:10245000FFFAADF8060003E00120ADF80600FFE743
:10246000BDF8060002B080BD80B584B00020ADF894
:1024700006000220FEF740FC40F68C40C2F200004D
:102480000068E8BBFFE740F68C41C2F20001012082
:10249000086000F0B7FE02909DF808004007002891
:1024A0000ED5FFE700F080F8ADF8060040F680405A
:1024B000C2F2000000218160806800F0F5FEFFE7B5
:1024C00000200390FFE7039803280AD8FFE79DF850
:1024D0000C00029900F07EFBFFE7039801300390A7
:1024E000F1E7029820F0010000F068FF40F68C410F
:1024F000C2F20001002008600220FEF745FCFFE761
:10250000BDF8060004B080BD80B584B08DF80F0022
:10251000029101929DF80F00002319461A4600F01F
:1025200075FD04B080BD000080B584B003900291B9
:102530000398FFF7E9FC00F06FFE4FF4803000F0E5
:102540009BFE0298006800F097FE0299486889682F
:10255000084340F0010000F0B1FE05210022019285
:10256000104600F0A7FA019840F66A41C2F2000155
:1025700042F2FD52C0F6000200F0D2FD019840F692
:102580008041C2F200010870886004B080BD000084
:1025900080B50C2000F070FE40F68041C2F20001D0
:1025A00002200870002080BD40F68041C2F2000188
:1025B000032008700020704780B582B08DF80500B8
:1025C000ADF80210ADF800209DF8050002280CD1EE
:1025D000FFE7BDF8020040B9FFE79DF800000121C8
:1025E00000F0B8FAADF8060003E00120ADF80600EF
:1025F000FFE7BDF8060002B080BD000080B58CB0DA
:102600008DF82F000A910020ADF824000A98007878
:1026100000F060008DF827000A98007800F0800034
:102620008DF826009DF827000146059150B1FFE77F
:102630000598202800F0E281FFE70598402800F087
:10264000E281E4E1002006900A984088ADF822007B
:102650000A988088ADF820000A98C088ADF81E005E
:102660000A98007800F01F008DF81D009DF81D00ED
:10267000042804DBFFE70220ADF82400CBE10A9830
:102680004078014604910C2800F28F810499DFE81C
:1026900011F00D0076008C019D008C01C400D40067
:1026A000DF00E30009012801470167019DF82600CA
:1026B000802817D1FFE740F68040C2F20000007882
:1026C000042813D1FFE79DF81D0001280AD0FFE779
:1026D0009DF81D00022809D1FFE7BDF8200004285D
:1026E00004DBFFE70120ADF8240047E00020ADF84F
:1026F0002400BDF8240000283FD1FFE79DF81D000D
:102700000146039140B1FFE7039801280BD0FFE792
:10271000039802280ED01DE040F65841C2F2000195
:102720000020087017E040F65841C2F20001002076
:10273000087010E0BDF8200040F69042C2F200029E
:102740002C2100FB0120407840F65841C2F20001E4
:10275000087000E0FFE740F65841C2F20001002097
:1027600048709DF82F0042F20953C0F60003022280
:1027700000F016FCADF82400FFE7FFE719E140F692
:102780008040C2F200000078042813D1FFE79DF8D2
:102790001D0001280AD0FFE79DF81D00022809D17D
:1027A000FFE7BDF82000042804DBFFE70120ADF8B7
:1027B00024000AE09DF81D00BDF82210BDF820207D
:1027C000FFF732FEADF82400FFE7F2E040F680406C
:1027D000C2F200000078042813D1FFE79DF81D0025
:1027E00001280AD0FFE79DF81D00022809D1FFE764
:1027F000BDF82000042804DBFFE70120ADF8240029
:102800000AE09DF81D00BDF82210BDF82020FFF75A
:10281000D3FEADF82400FFE7CBE00020ADF82400A4
:10282000BDF8220040F68041C2F20001886042F605
:102830002120C0F600000690BBE0BDF82200BDF8E4
:102840002010BDF81E20FFF751FCADF82400B0E0C9
:102850000120ADF82400ACE040F68040C2F2000058
:102860000078042807D1FFE740F65841C2F2000182
:102870000020087006E040F65841C2F20001012035
:102880000870FFE79DF82F0040F65841C2F20001A2
:1028900042F20953C0F60003012200F081FBADF8BB
:1028A000240086E0BDF8220038B9FFE740F68041F9
:1028B000C2F200010420087012E0BDF822000138C5
:1028C00018BF0120ADF82400BDF8240038B9FFE797
:1028D00040F68041C2F2000105200870FFE7FFE7E3
:1028E00067E040F68040C2F200000078042804D17E
:1028F000FFE70120ADF8240011E040F65841C2F294
:102900000001002008709DF82F0042F20953C0F624
:102910000003012200F044FBADF82400FFE748E08B
:1029200040F68040C2F200000078042804D1FFE79E
:102930000120ADF8240012E0BDF820100020029024
:1029400039B9FFE7BDF82200B0FA80F040090290E3
:10295000FFE7029901208843ADF82400FFE728E053
:1029600040F68040C2F200000078042804D1FFE75E
:102970000120ADF8240017E00120ADF82400BDF8D7
:10298000240080B9FFE79DF82F0040F65841C2F2BD
:10299000000142F20953C0F60003022200F000FBDE
:1029A000ADF82400FFE7FFE703E00220ADF82400C4
:1029B000FFE7BDF8240000BBFFE7BDF81E00E0B94B
:1029C000FFE70A9800780006002809D5FFE79DF880
:1029D0002F00069B0022114600F018FB019008E032
:1029E0009DF82F00069B0022114600F0D9FA0190B5
:1029F000FFE70198ADF82400FFE70CE0FFF7B8FA15
:102A0000ADF8240007E00120ADF8240003E0022027
:102A1000ADF82400FFE7BDF824000CB080BD000035
:102A200080B584B08DF80F000291019240F680408D
:102A3000C2F200000090806800F036FC00998A68BD
:102A40000320002A18BF04200870002004B080BDB5
:102A500080B584B08DF80F009DF80F0040F69042CD
:102A6000C2F200022C2100FB012002904FF4002052
:102A700001900298407E20B9FFE70298807E40B125
:102A8000FFE7029901200870019840F002000190D0
:102A900003E0029900200870FFE7029900200090EF
:102AA00048709DF80F00019900F038F8009804B0C4
:102AB00080BD000080B586B08DF8170004910392A8
:102AC0009DF8170040F69042C2F200022C2100FB54
:102AD00001200290029900200190486002998860CC
:102AE000029908610299C860029948610299C86117
:102AF00002990862029948620399029A91620299C6
:102B0000487002990870029908769DF81700049998
:102B100000F0ECFB019806B080BD000080B584B0E9
:102B20008DF80F0002919DF80F0040F69042C2F21E
:102B300000022C2100FB012001901F2000F03EFC30
:102B40000199002008769DF80F00029900F0CEFB55
:102B500004B080BD80B584B08DF80D008DF80C10E8
:102B60009DF80D0040F69042C2F200022C2100FBBD
:102B700001200290002001909DF80C00012808D14E
:102B8000FFE79DF80D0020B9FFE70120ADF80E002A
:102B90001BE09DF80C00012804D0FFE70298807E1E
:102BA00050B1FFE79DF80C0002994870029905208A
:102BB00008700A200190FFE79DF80D000199FFF7CA
:102BC000ADFF0020ADF80E00FFE7BDF80E0004B029
:102BD00080BD000080B58CB08DF82D000A910020DA
:102BE0008DF82700ADF824009DF82D0000F0EEFAD6
:102BF00008909DF82D0000F0F7FA00F00300079010
:102C00009DF82D0000F0B8FA06909DF82D0040F6D2
:102C10009042C2F200022C2100FB012003909DF89B
:102C20002800C00720B1FFE7039901200876FFE7DD
:102C3000FFE70398007801460291052800F29F8182
:102C40000299DFE811F006000A004000C0002A01E6
:102C500084010020ADF82E009DE19DF8180080074A
:102C600000282FD4FFE70398007E58B3FFE70798AA
:102C700002280ED1FFE70398407E50B1FFE7039989
:102C80000320087003990020487601208DF8270062
:102C900017E0079858B9FFE70398807E38B1FFE73F
:102CA00003990420087001208DF8270008E0012016
:102CB000ADF824009DF82D000021FFF74BFFFFE742
:102CC000FFE7FFE75BE19DF818008007002847D485
:102CD000FFE70398007E002842D0FFE7079801280D
:102CE0003ED1FFE79DF820004006002838D5FFE7D9
:102CF0000399C8680A691044C86003988168C0686D
:102D0000884226D3FFE70399002008700398C06922
:102D100050B1FFE7039841688268C3699DF82D00B0
:102D20009847ADF82400FFE7BDF8240050B9FFE74D
:102D30000398007828B9FFE79DF82D00FFF788FE7B
:102D4000FFE705E09DF82D000021FFF703FFFFE7F7
:102D500005E09DF82D00012100F082F9FFE731E048
:102D60009DF82000000760B3FFE70399002008707A
:102D70000398806A60B1FFE70398D0F828C09DF8F7
:102D80002D000899079A069BE047ADF82400FFE75D
:102D9000BDF8240070B9FFE70398007848B9FFE751
:102DA0000399022008709DF82D00002100F058F9C9
:102DB000FFE705E09DF82D000021FFF7CBFEFFE7C0
:102DC000FFE7FFE7DBE09DF818008007002863D4E9
:102DD000FFE70398007E00285ED0FFE70020019007
:102DE0008DF827009DF82D0000F0E2F901460198CA
:102DF00004910590FFE70598049988420FD2FFE7F8
:102E00009DF82D0000F0C6F9039A5168D268059B21
:102E10001A448854FFE7059801300590EBE79DF8C8
:102E20002D00012100F082FA049A0399C868104429
:102E3000C86003988168C068884226D3FFE7039979
:102E4000002008700398006A50B1FFE703984168BA
:102E5000C268036A9DF82D009847ADF82400FFE78B
:102E6000BDF8240050B9FFE70398007828B9FFE7C0
:102E70009DF82D00FFF7ECFDFFE705E09DF82D0024
:102E80000021FFF767FEFFE705E09DF82D00022116
:102E9000FFF744FEFFE7FFE771E00398007E00289C
:102EA00051D0FFE79DF82D0000F082F904900498BE
:102EB000082838D1FFE700200590FFE7059804991E
:102EC00088420DD2FFE79DF82D0000F063F90399C9
:102ED0004969059A8854FFE7059801300590EDE7A8
:102EE0009DF82D00012100F021FA03984169426A02
:102EF0009DF82D009047ADF82400BDF8240058B986
:102F0000FFE703980078042805D1FFE79DF82D001E
:102F1000FFF79EFDFFE705E09DF82D000021FFF77C
:102F200019FEFFE70EE09DF82D000121009100F051
:102F3000FDF90098ADF824009DF82D000021FFF761
:102F400009FEFFE7FFE700208DF8270017E09DF856
:102F500018008007002811D4FFE703984078012863
:102F600006D1FFE79DF82D000121FFF7F3FD04E0F6
:102F70009DF82D00FFF76CFDFFE7FFE7FFE7FFE798
:102F80009DF8270000287FF454AEFFE7BDF8240029
:102F9000ADF82E00FFE7BDF82E000CB080BD00009C
:102FA00080B588B08DF81F000691059204939DF8B6
:102FB0001F0040F69042C2F200022C2100FB0120CB
:102FC00003900398817E0120002918BF02208DF80C
:102FD0000B00069803994860059803998860039947
:102FE00040200861039900200190C860049803996B
:102FF000C8619DF81F009DF80B1000F031F8019892
:10300000039A0221117008B080BD000080B586B01F
:103010008DF817000491039202939DF8170040F673
:103020009042C2F200022C2100FB01200190049882
:1030300001994860039801998860019900200090E7
:1030400008610199C86002980199086201990120FC
:1030500048769DF81700FFF7FBFC009806B080BD8E
:1030600080B586B08DF817008DF816109DF8170002
:1030700040F69042C2F200022C2100FB0120049095
:103080009DF81700012100F071F99DF81600014626
:10309000019140B1FFE70198012805D0FFE70198B1
:1030A000022806D00BE00AE09DF8170000F0CCF8EB
:1030B00005E09DF81700042100F018F9FFE7049AD5
:1030C0009168D06812691044884206D2FFE70499DB
:1030D000C86809690844009003E00498806800907B
:1030E000FFE7009802900498C0680390FFE70398F8
:1030F000029988420DD2FFE79DF8170004994968AC
:10310000039A895C00F022F9FFE7039801300390ED
:10311000EDE79DF817000221FFF700FD06B080BD26
:1031200080B586B08DF81700049103929DF81700C2
:1031300040F69042C2F200022C2100FB01200290D6
:1031400004980299486102990020019088600299D0
:1031500008610299C86003980299486203980028A0
:1031600018BF0120029988769DF81700FFF770FCC0
:10317000019806B080BD000081B08DF803009DF875
:103180000300010140F20010C4F20100405801B0F8
:103190007047000081B08DF803009DF80300C10165
:1031A00040F28010C4F20100405801B070470000A6
:1031B00081B08DF803009DF80300C10140F28C102E
:1031C000C4F20100405801B07047000081B08DF892
:1031D00003009DF80300010140F20410C4F2010055
:1031E000405801B07047000081B08DF803009DF891
:1031F0000300010140F20810C4F20100405801B080
:103200007047000040F24810C4F2010000687047A7
:1032100080B5FFF729F980BD80B582B0022000F0AB
:103220002BF800200190FFE70198C0087C2805D802
:10323000FFE7FFE7019801300190F5E74FF4003018
:1032400000F01AF802B080BD82B08DF807009DF83A
:103250000700000140F20011C4F20101085800907B
:10326000009880F00400009000989DF8072012015B
:10327000885002B07047000082B00190FFE740F232
:103280008031C4F2010108680090BDF80420009864
:1032900010430090BDF806200098904300900098DD
:1032A0000860FFE702B0704781B00090009840F2DC
:1032B0005011C4F20101086001B0704782B0019062
:1032C000FFE740F24011C4F2010108680090BDF828
:1032D0000420009810430090BDF806200098904309
:1032E000009000980860FFE702B0704783B08DF847
:1032F0000B000191FFE79DF80B00000140F2001167
:10330000C4F2010108580090BDF804200098104351
:103310000090BDF8062000989043009000989DF81A
:103320000B2012018850FFE703B0704782B08DF880
:103330000700009100989DF80710CA0140F2901113
:10334000C4F20101885002B07047000082B08DF8CD
:103350000700009100989DF80710CA0140F2C011C3
:10336000C4F20101885002B07047000082B08DF8AD
:103370000700009100989DF80710CA0140F2D01193
:10338000C4F20101885002B07047000082B0019081
:10339000FFE740F24C11C4F2010108680090BDF84B
:1033A0000420009810430090BDF806200098904338
:1033B000009000980860FFE702B0704781B000906D
:1033C000009840F24811C4F20101086001B0704752
:1033D00040F64441C2F200014FF4E13008600020A1
:1033E00008714871082088717047000080B586B068
:1033F0004FF40030019001210591FEF78FF9FCF7A1
:10340000C1FF40F64850C2F200000290FDF724F8D8
:10341000019B029805990022049202604260836039
:10342000C260026142618161FCF7EAFF40F66450CC
:10343000C2F200000390FDF741F80398049901706F
:103440000822427041800222027181608181C18123
:103450000182418201754FF4C041C182072181611F
:10346000FCF746FF04994FF4C010FCF71FFF0598C6
:10347000FCF7FCFE0520FDF751FC06B080BD000006
:10348000F0B587B04EF28021CEF200014FF0FF3050
:1034900008604EF28011CEF2000108602020012564
:1034A00006952946FEF73AF9FDF772F940F6104104
:1034B000C2F20001019148F21C07C4F208070F6034
:1034C00040F26046C2F200064E604FF0030E81F8F3
:1034D00008E04D724FF08854CC6081F810E04FF056
:1034E0000A0CC1F814C0002303938B614FF48022AF
:1034F000CA614FF40010086240F25C51C2F2000150
:1035000002910F604E6081F808E04D72CC6081F846
:1035100010E0C1F814C08B61CA61086240F6004037
:10352000C2F200000490FDF7B3FA019B029A0398DF
:1035300004990B604A6008734873887309200590EA
:10354000FDF70CFA05980699FDF7B0F807B0F0BD45
:1035500080B582B000200190FCF7E4FFFFF790FFF8
:10356000FFF744FFFDF7DEFEFEF730FCFDF7D4FA6F
:10357000FDF74EFEFEF78AFCFDF750F8FFF728FF37
:1035800040F27440C2F2000006210122FEF720FE44
:10359000FEF712F9FFE7FDF799FAADF80200BDF862
:1035A0000200FCF76DFFADF80000BDF90000FDF76B
:1035B000FDFB40F6DE50C2F20000007838B1FFE7B4
:1035C00040F6DE51C2F2000100200870FFE7E2E79A
:1035D00090EA010F48BF81F0004100F13482421AA5
:1035E0003CBF801A89184FEAD052A2EBD1534FF05A
:1035F0007F4C1CEA410F18BF9CEA026F00F03B8031
:103600004FF0004C4CEA00204CEA012121FA03FC67
:1036100010EB0C0C1ED202F1FF325FEA1C2040EBD3
:10362000C25038BF70471CF07F0F4FEA400C18BFE4
:10363000BCF17F4F38BF7047C3F12003994008BFEA
:1036400020F00100BCF17F4F38BF7047A0F1C040AF
:1036500000F0EDB94FEA3C00000A40EBC25028BF31
:103660001CF0FF0F4FEA400CE6D018BFBCF17F4FB3
:1036700038BF7047EAE79CEA026F05D010EA5C0F9A
:1036800008BF00F00040704710B500F08AF900BF95
:1036900064FBBE3E10B500F033F80CBF01200020E3
:1036A00010BD10B500F02CF814BF0120002010BD93
:1036B00010B500F08DF88CBF0120002010BD10B5B2
:1036C00000F086F82CBF0120002010BD10B500F0DE
:1036D000B3F894BF0120002010BD10B500F0ACF885
:1036E00034BF0120002010BD401058BFC0F1404041
:1036F000491058BFC1F140418142EFF3008070474B
:1037000050EA010C00F113801CF5000F58BFBCF506
:10371000000F01D48842704707D710F5000F58BF3B
:1037200011F5000F15D488427047894270471CF587
:10373000000F04D5BCF5000FF7D5814270474FF05C
:10374000807C1CEB400F38BF1CEB410F01D2814243
:10375000704710B500F025F9922449004FF0005051
:103760004FF08051FFF7C0BF41000B0ED3F19E0216
:1037700008D950F400034FEA032323FA02F048BFAC
:103780004042704710B500F00CF900BF4992248008
:10379000002070476FF0004282EA2000704700006E
:1037A00010F0004148BF4042B0FA80F310FA03F233
:1037B000C3F19D030BD051EAC35101EB1220530614
:1037C00038BF704700F1010008BF20F001007047CA
:1037D00050EA010C00F113801CF5000F58BFBCF536
:1037E000000F01D48842704707D710F5000F58BF6B
:1037F00011F5000F15D488427047894270471CF5B7
:10380000000F04D5BCF5000FF7D5814270474FF08B
:10381000807C1CEB400F38BF1CEB410F01D2814272
:10382000704710B500F0BDF8922449004FF0805069
:103830004FF00051FFF758BF50EA010C00F1138020
:103840001CF5000F58BFBCF5000F01D4884270472B
:1038500007D710F5000F58BF11F5000F15D4884297
:103860007047894270471CF5000F04D5BCF5000F66
:10387000F7D5814270474FF0807C1CEB400F38BF7A
:103880001CEB410F01D28142704710B500F089F85E
:10389000922449004FF000504FF08051FFF724BFB1
:1038A0004FF47F0C1CEAD0121EBF1CEAD11392EA1F
:1038B0000C0F93EA0C0F00F0478090EA010F48BF0D
:1038C00042F480724FF0004C4CEA00204CEA012197
:1038D00002EB0302A0FB0113A2F50002002918BFAE
:1038E00043F001035B0028BF4FEA330342EB22425F
:1038F0005FEA132C4CEBC2502EBFBCEB436FB2F50A
:103900007C0F70474FEA036CBCF1004F08BF20F0FA
:103910000100B2F57C0F38BF70470BD582F0FF0273
:1039200012F5803FC8BF704700F1C040D8BF00F01B
:103930000040704700F5000C5FEA4C0C48BF704730
:10394000B0F1C04000F073B80CEAD11390EA010F57
:1039500048BF42F48072624538BF634504D280EAB2
:10396000010000F00040704710B500F01AF800BFE9
:103970008900013E00F007B800F009B85FEA410C89
:103980005FEA1C6C08D080EA010000F050B85FEAE2
:10399000400C5FEA1C6CF6D14FF00040A0F58000AF
:1039A00070470EF1020E2EF0030E5EF8044B244217
:1039B00004D44FEA4102B2F17F4F11D84FEA4003DD
:1039C000B3F17F4F0CD80ED14FEAD07C0CEB4C0CEE
:1039D0000CF1020CB2F17F4F08BF4CEBD17C04E03C
:1039E0004FF0080C01E04FEAD17C0CEB4C0324FAB9
:1039F00003F404F00704B4F1040C06D20EEB840CBB
:103A0000BDE810404CF0010C6047DFE80CF00708FF
:103A100002024FF00040A0F5800010BD08464200B1
:103A200018BFD2F1807288BF00F0004010BDFF21A6
:103A300041EAD050C005704790EA010F48BF81F0BD
:103A400000413FF5CCAD421A04D882F00042A0EB11
:103A5000020011444FEAD052A2EBD1534FF07F4CF9
:103A60001CEA410F18BF9CEA026F4AD04FF0004C8D
:103A70004CEA00204CEA012121FA03FCB0EB0C0CCB
:103A80000FD412F0FE0F36D05FEA4C001DD50012A5
:103A900040EBC25038BF70471CF03F0F18BF704753
:103AA0000BE05FEA1C20A2F1010240EBC25038BFDC
:103AB00070471CF07F0F18BF7047C3F12003994077
:103AC00014BF401E20F0010070474FEA1223800807
:103AD00008BF7047B0FA80FCA2EB0C02CCF1280CB6
:103AE00060FA0CF093EA122F04BF00EBC25070474B
:103AF0004FEAC3707047130A5FEADC1008BF7047D3
:103B0000F6E79CEA026F04D010EA5C0F08BF0020C1
:103B1000704710B5FFF745FF40DFF63E81F00040EB
:103B200070470000443B00080000002074000000C3
:103B300024010008B83B000800040020E00F00004A
:103B400044010008590270002A010902FB02060420
:103B500017054D06C1072E0A8B0E000000127A00D1
:103B60000902430002010080320904000001020240
:103B700001000524001001052401000104240206AF
:103B80000524060001070582034000020904010024
:103B9000020A000000070581024000000705030239
:103BA0004000001201100102000040830425F100D2
:083BB00000000000010000000C
:040000050800018965
:00000001FF
