:020000040800F2
:1000000020140020350200083D0200083F020008CD
:1000100041020008430200084502000800000000F9
:10002000000000000000000000000000470200087F
:1000300049020008000000004B0200084D020008C1
:100040004F020008510200087D3F00080000000038
:1000500000000000C11900085702000859020008FA
:100060005B020008000000005D0200085F0200085B
:100070006102000800000000312B00086502000842
:100080006702000869020008000000006B02000817
:100090006D020008000000000000000000000000E9
:1000A0000000000000000000000000006F020008D7
:1000B0007102000873020008750200087702000848
:1000C00000F002F800F0A6F814A696E8000CB2447E
:1000D000B344DA4501D100F09DF8BAE80F000FA64D
:1000E00096E83000A5EB040504EB0607AAEB07042D
:1000F000A7F101074FEA15154FEA3414A4F10104E2
:10010000AC4201D300F086F813F0010F18BFFB1AC0
:1001100043F0010300F001F8DBE71847DC50000072
:10012000FC500000103A24BF78C878C1FAD85207B2
:1001300024BF30C830C144BF04680C607047000061
:10014000704700000023002400250026103A28BF35
:1001500078C1FBD8520728BF30C148BF0B60704739
:100160006E2900F05D81702900F0A182662904F0FB
:10017000B887652904F0B587672904F0B28761293B
:1001800004F0B18703681B0A28BF41F08001692988
:1001900000F00A81642900F00781752900F00481CC
:1001A0006F2900F02F82782900F06D82E92900F094
:1001B000C981E42900F0C681F52900F0C381EF2947
:1001C00000F02C82F82900F06C820368DB0928BF5C
:1001D00041F08001632900F06D87732900F0728778
:1001E000E32900F07D87F32900F082870020704723
:1001F0001FB500F0D3FF04000020002104F0B2FC82
:10020000401C60600020002104F096FCE0601FBDEF
:1002100010B510BD00F094FF1146FFF7E9FF04F0A0
:1002200067F801F071F803B4FFF7F2FF03BC01F0C7
:10023000B9F800001348804713480047FEE7FEE77F
:10024000FEE7FEE7FEE7FEE7FEE7FEE7FEE7FEE786
:10025000FEE7FEE7FEE7FEE7FEE7FEE7FEE7FEE776
:10026000FEE7FEE7FEE7FEE7FEE7FEE7FEE7FEE766
:10027000FEE7FEE7FEE7FEE704480549054A064BB0
:100280007047000001270008C1000008200E002070
:100290002014002020100020201000200FB41CB5D6
:1002A0000C0007AA009007D04142A14202D320448B
:1002B000401E01E04FF0FF30074B7B446946019040
:1002C000069800F0C6F80021002C01D0009A1170A9
:1002D0001CBC5DF814FB0000BB01000070477047B8
:1002E000704770B5044685690068C10601D530269F
:1002F00000E02026C00707D070BDD4E901213046B8
:100300009047206A401C20626D1EF6D570BD70B506
:10031000044685690078C00707D170BDD4E9012182
:1003200020209047206A401C20626D1EF6D570BDCB
:1003300009684A0501D540B27047C905FCD500B22D
:10034000704709684A0501D5C0B27047C905FCD598
:1003500080B2704770B50C460546012A05D0287852
:10036000800600D5EA69002302E0012305E05B1C5A
:10037000934202D2E05C0028F9D1A869E618C01ABD
:10038000A861286A184428622846FFF7AAFF04E0FB
:10039000D5E9012114F8010B9047B442F8D328465F
:1003A000FFF7B5FF70BD00002DE9F04106460024BF
:1003B00010687529314616A510D0FFF7B9FF00283F
:1003C00002DA404213A507E031688A0701D512A579
:1003D00002E0490704D511A5012401E0FFF7B1FFB0
:1003E00000210A2206F1240709E0B0FBF2FCB0FB71
:1003F000F2F302FB1C00303078541846491C0028E8
:10040000F3D123462A463046BDE8F04100F063BAF6
:10041000000000002D0000002B0000002000000064
:1004200011680268006A530501D508700AE0D30517
:1004300001D5088006E0130603D5C217C1E9000202
:1004400000E008600120704701694A1C02610878D9
:10045000704700B58FB0CDE9013100210591054904
:100460007944CDE903101146684600F02BF90FB02E
:1004700000BD0000E5FFFFFFD1E900239A4202D250
:10048000531C0B60107070472DE9FF5F15468A46BC
:100490000446DFF8AC80F8440027D8E900103E4657
:1004A000CDE9001010E03AF816106A4602A800F0F4
:1004B00023FE411C07D02178890603D5E26939184B
:1004C00091420DD80744761C2078800602D5E06959
:1004D000B84205DDAE42E6DB3AF816000028E2D16C
:1004E000A069C01BA0612046FFF7FBFED8E9001001
:1004F000CDE90010002017E03AF818106A4602A86B
:1005000000F0FAFDB0F1FF3F81460BD000250DF160
:10051000080B05E0D4E901211BF8050090476D1C8C
:100520004D45F7D308F10100B0428046E4DB206A74
:10053000384420622046FFF7EAFEBDE8FF9F000036
:10054000524C00002DE9F0418046D21D22F00702F6
:100550000025D2E90002F52915A614D0011E72F17A
:10056000000106DA0023D0EB030063EB020211A6C0
:1005700008E0D8F800108B0701D50FA602E0490764
:1005800001D50EA601251146002408F1240704E038
:1005900000F05CF930323A55641C50EA0102F7D1A0
:1005A0002B46324621464046BDE8F04100F093B963
:1005B000000000002D0000002B00000020000000C3
:1005C00030B4002100F1240408E002F00705D2084D
:1005D000303542EA4372DB086554491C52EA030590
:1005E000F3D10468002310A2250708D504F02004E5
:1005F0000C4304D0C46901230CA2641EC46130BC46
:1006000000F069B910B5044621461068FFF799FE5D
:1006100002462046BDE810400023D1E7D21D22F05B
:100620000701D1E90023CBE7000000003000000003
:10063000F0B40D460188090502D5214C7C4402E046
:100640001F4C7C440E34002100F1240608E002F027
:100650000F071209E75D42EA03721B097754491C30
:1006600052EA0307F3D102780023120704D5702D54
:1006700006D009B1022311342246F0BC00F02BB998
:1006800001231034F8E770B504460D462146106882
:10069000FFF757FE024629462046BDE8704000237A
:1006A000C6E7D21D22F00703D3E90023C0E70368A1
:1006B000126843F0200303600823C3610023B7E7F7
:1006C000B44A00002DE9F05F894604464FF0000A65
:1006D000DFF874B1FB44C0F820A02046E1688847E9
:1006E000002874D0252806D0D4E901219047206A3B
:1006F000401C2062F1E700265F462046E1688847FB
:100700002028054607DB312D05D2781910F8200C7A
:1007100008B10643F1E7B00701D526F00406C4F896
:100720001CA00027C4F818A02A2D09D0284604F0E0
:10073000FBF938B304EB8708303DC8F8185019E0CE
:1007400059F8041B204604EB87029161E168884751
:10075000012F054618D1E069002820DA26F020068E
:100760001DE0D8F8180000EB800005EB40003038A1
:10077000C8F818002046E1688847054604F0D4F917
:100780000028EED1012F0AD02E2D08D12046E16895
:1007900088477F1C0546022F46F02006C4DBA0696F
:1007A000002803DA404246F00106A061F00701D0BC
:1007B00026F010066C2D0BD0682D09D04C2D39D0A9
:1007C0006A2D35D0742D35D07A2D33D016E038E02F
:1007D000E1682F4620468847B842054609D16C2F6C
:1007E00026D04FF48060E1680643204688470546DE
:1007F00004E06C2F1AD04FF4807006430DB3A5F1BE
:100800004100192802D8203546F400664A46294698
:10081000204626604E46FFF7A3FC80B101280BD08E
:10082000F61D26F0070000F1080956E74020E4E72E
:100830008020D8E70020D6E706F104094DE72846D6
:1008400052E7206ABDE8F09F444A000030B5B0F19D
:100850000A0271F100034FEA900E4EEA817EB0EB7E
:100860000E0061EB91014FEA101E4EEA017E10EB83
:100870000E0041EB11114FEA102E4EEA016E10EB03
:100880000E0041EB11214FEA104E4EEA014E10EBE3
:100890000E0041EB1141401841F100014FEAD00038
:1008A00040EA41704FEAD1014FEA810444EA907472
:1008B00010EB800544EB01046D1944EB0404521B5A
:1008C000A3414FF0000348BF0A3200D530BD401CA1
:1008D00041F1000130BD2DE9F0470D4699469246A1
:1008E000044600F124080168880604D5E06921F077
:1008F0001001216000E00120A84201DD471B00E05B
:100900000027A1697A1902EB0900081AA061207872
:10091000C00602D42046FFF7E4FC002608E0D4E934
:1009200001211AF806009047206A401C761C2062BC
:100930004E45F4DB2078C0060AD52046FFF7D1FCEF
:1009400006E0D4E9012130209047206A401C206253
:10095000381EA7F10107F4DC07E0D4E9012118F8FB
:1009600005009047206A401C2062281EA5F1010561
:10097000F3DC2046FFF7CBFC2078000602D50220EE
:10098000BDE8F0870120FBE72DE9FF4F0C461E462E
:100990004FF0FF378BB0D2E90001DDF860800A909C
:1009A0008A46C1F30A5505B93D46002108464FF075
:1009B0000000BAF1000F00F4400005DA00EB8000FF
:1009C0004FF4400101EA50004FEA9059B9F1010F8C
:1009D00000DDB9460A9850EA4A000ED044F610509D
:1009E000A5F2FF3545432F14B8F1000F1ED0754214
:1009F000291E1EDDC9F100021CE0B8F1010F4FF005
:100A0000000001D0302103E0F24305E02154401CF6
:100A1000B042FBDB30460022002121540B99C1F883
:100A20000880C1E900200FB0BDE8F08FBD1B6D1C30
:100A3000DEE74A4600DA694206A800F0F3FB06AB9F
:100A400093E8070003AB83E8070050460A9903F0D8
:100A50008FFC8DE80700A0F500501F380090039828
:100A6000002D0ADD42F21F014A460844002303A973
:100A70000390684603F0F8FE09E0A0F500504A46EE
:100A80001F38002303A90390684603F002FF8DE896
:100A900007000004000C03D04FF0FF30410800E0D5
:100AA0001046B8F1000F03D00022009215461EE058
:100AB000751E05D4FFF7CAFE303262556D1EF9D59A
:100AC000B3460122084302D000227F1C04E02078B4
:100AD000302801D100227F1E002A099784D01DE012
:100AE000112D07DAFFF7B2FE303262556D1C50EA65
:100AF0000102F5D1084302D00098C8B10EE00021F0
:100B0000681E05E0235C625C63542254401E491C4D
:100B10008142F7DBAB46A81B401E0990002004F879
:100B20000B000B98099AC0F80880C0E9002B7AE7FF
:100B300011264FF0000857E72DE9F04F884604468C
:100B4000D21D22F0070191B0D1E90001CDE90A01DF
:100B500003F0D6FF02460B98C00F01D02D2007E00E
:100B60002068810701D52B2002E0202101EAC00086
:100B7000032A099001D0072A05DB03464146204697
:100B800000F010FB0BE12078800601D5E06900E061
:100B90000620B8F1650F814606D0B8F1660F18D06F
:100BA000B8F1670F70D131E00020B9F1110F00905A
:100BB00001DB112301E009F101030AAA01A90CA834
:100BC000FFF7E2FEDDE90C70002609F1010583461E
:100BD00047E001204B4600904FF000470AAA01A9C8
:100BE0000CA8FFF7D1FEDDE90DB00C995D4600269B
:100BF00010B909F101000D18B9EB050003D4C0F1DB
:100C0000FF3609F10105A5EB09002BE0B9F1010F51
:100C100001DA4FF001090020B9F1110F00904846A8
:100C200001DD112300E003460AAA01A90CA8FFF781
:100C3000ABFEDDE90C704D460026834620780007A8
:100C40000AD4AB4500DA5D4601A8012D04DD411947
:100C500011F8011C302907D04F4502DA17F1040FB3
:100C600004DA012082460FE06D1EEEE7002F02DC61
:100C7000ED1B3E4403E0781CA84200DD7D1CB81B40
:100C800000F1010A4FF000472078000703D4AA457D
:100C900001DB4FF0FF3A0021B7F1004F0DF143089F
:100CA0008DF8431024D002202B23002F01DA7F423D
:100CB0002D230A21021EA0F1010000DC5FB197FB89
:100CC000F1FC97FBF1F201FB1C7C17460CF1300C98
:100CD00008F801CDEEE7A8F10100037021880905AD
:100CE00001D5452100E06521A0F1010800F8011CB3
:100CF00009980FA9A1EB0807FF1D00B101204119B8
:100D000001EBEA70A1693844081A401EA0612078FE
:100D1000C00602D42046FFF7E4FA099828B1D4E9C6
:100D200001219047206A401C20622078C00622D50D
:100D30002046FFF7D6FA1EE0002E04DBB34502DDA5
:100D400001A8805D00E03020D4E901219047206AAD
:100D5000401C2062761CAAF101005FEA000A0AD159
:100D600000F01CFAC0680168405CD4E9012190479A
:100D7000206A401C2062281EA5F10105DCDC07E08A
:100D8000D4E9012118F8010B9047206A401C206229
:100D9000381EA7F10107F3DC2046FFF7B8FA03205D
:100DA00011B041E62DE9F04F04460D46D21D22F068
:100DB000070089B0D0E900974846394603F0A0FE05
:100DC0000246F80F01D02D2307E02068810701D5E6
:100DD0002B2302E0202101EAC0038DF820300BB163
:100DE000012000E00020032A824601D0072A04DB0C
:100DF0002946204600F0D6F93FE12078800601D44C
:100E00000D2500E0E569C7F30A560D2D49DA0021EA
:100E10004FEA175B08464FF00000002F00F4400037
:100E200007DA00EB80004FF4400100EBD07001EADC
:100E300060008115012901DD4FF0FF3100224FEAEA
:100E4000850CBCF1180F06D31346ACF118004FF017
:100E50008052C24003E04FF4801323FA0CF30CF1EC
:100E60000C0CBCF1200F04D3ACF1200C09FA0CF0EF
:100E700001E007FA0CF000294FF0004801DD18B935
:100E80000FE00ED140450CD319EB02095F4121B9A7
:100E9000404502D19F4329EA0209BBEB175F00D00E
:100EA000761C2088000502D57B48784402E07A4809
:100EB0007844193808AA302302F80A30037C0AF172
:100EC0000101002E0AF1020A53546A4602DC4FF077
:100ED000300101E04FF031014FF001088DF80010B2
:100EE00002D0A6F2FF3603E059EA470100D06B4E6C
:100EF000002D02DC2178090704D54FF002082E21CD
:100F00008DF80110C44600210BE0C7F303433F01F5
:100F1000C35C491C6D1E02F80830052908F1010860
:100F200001DA002DF1DC00210CE000EB1973491C03
:100F30001B786D1E082902F808304FEA091908F1DC
:100F4000010801DA002DF0DC21688B0602D516E0DD
:100F5000A8F10108E04505DD02EB080313F8013CA8
:100F6000302BF5D0B8F1000F09DD02EB080313F8C0
:100F7000013C2E2B03D1090701D4A8F10108002D53
:100F800005DD3E2102F808106D1E08F10108407CC5
:100F9000002E02F8080008F1010804DA2D2076423C
:100FA00002F8080002E02B2002F808000A214FF4A2
:100FB0007A70864208F101080BDB96FBF0F33033C0
:100FC00002F8083096FBF0F308F1010800FB136605
:100FD00001E0642E0CDB642096FBF0F3303302F862
:100FE000083096FBF0F308F1010800FB136601E0FE
:100FF0000A2E06DB96FBF1F0303002F8080008F10B
:10100000010896FBF1F001FB1060303002F8080097
:10101000A16908F1010808EB050202EB0A00081AB1
:10102000A0612078C00602D42046FFF75AF9216A51
:1010300008AE01EB0A00206204E0D4E9012116F8B1
:10104000010B9047BAF1010AF7D22078C00602D509
:101050002046FFF746F96E4609E016F8010B3E28D8
:101060000FD0D4E901219047206A401C2062B8F1DA
:101070000108F2D22046FFF74AF909B00320BDE883
:10108000F08F206A2844206203E0D4E90121302057
:1010900090476D1EEBD3F8E79242000002FCFFFF81
:1010A00010B5436913B1AFF3008001E0FFF752F9C7
:1010B000012010BD127800F124010A7000224A704C
:1010C0000122EDE711684FF0FF32E9E710B54369FF
:1010D00013B1AFF3008001E0FFF7D6F9012010BD96
:1010E000128800F1240182840022C2840122EDE7EB
:1010F00011684FF0FF32E9E72DE9F04116460C4642
:10110000054600F043F8036893F80101012807D071
:10111000FF2C12D8185D80B101202C70BDE8F08141
:10112000D3F807013246214603F20713C7182846B1
:10113000BC46BDE8F041002360474FF0FF30EDE7CB
:10114000754600F0EBF8AE4605006946534620F0C0
:101150000700854618B020B5FFF78EF8BDE820409F
:101160004FF000064FF000074FF000084FF0000B63
:10117000AC46ACE8C009ACE8C009ACE8C009ACE8D2
:10118000C00921F007018D467047000010B500F03E
:1011900005F8001D10BD00BFCD39000000487047A4
:1011A000200400202DE9F0411F4604460326016873
:1011B000072A01F4006004DB08B116A505E016A5B6
:1011C00003E008B115A500E015A521F0100020608E
:1011D000A069C01EA0610FB1401EA0612046FFF7AC
:1011E00080F84FB1D4E9012138469047206A401C6D
:1011F0002062C01C206206E0206AFAE7D4E90121DF
:1012000015F8010B9047761EF8D22046FFF77FF8BD
:10121000BDE8F0814E414E006E616E00494E4600C1
:10122000696E66002DE9F047814616468AB035485A
:1012300078440DC88DE80D0032487844801C03AC1A
:101240000DC884E80D0041F69B300844372190FB1F
:10125000F1F290FBF1F5A5F1800501FB12041B3CB6
:1012600002D56442012000E00020DFF898A080460B
:101270000027FA44AAF1BE0A0EE0E0070AD032467F
:10128000684607EB470101230AEB810103F001FBEC
:101290008DE8070064107F1C002CEED1194F7F44AD
:1012A000AE3F19E0E80715D007EB04100DF1180A5E
:1012B00090E80E008AE80E00C068F04201D198194B
:1012C00008903246012306A903A803F0E2FA03AB13
:1012D00083E807006D10641C002DE3D14FF001037B
:1012E00032466946B8F1000F03A802D003F0BCFAF9
:1012F00001E003F0CEFAC9E90001C9F808200AB0FC
:10130000BDE8F0879C3F000010B50446AFF30080B5
:101310002046BDE81040FEF786BF00000048704739
:10132000000400204FF0013C50F8042B51F8043B1E
:101330009A4221D1A2EB0C03934313EACC1317D1A9
:1013400050F8042B51F8043B9A4215D1A2EB0C0340
:10135000934313EACC130BD150F8042B51F8043B00
:101360009A4209D1A2EB0C03934313EACC13DBD0CE
:101370004FF00000704700BFD01A01BAB1FA81F1F6
:1013800001F0180122FA01F0CB40DBB2C0B2C01A62
:10139000C1F120012CFA01F3D11A914311EAC311D2
:1013A000E6D1704701491820ABBEFEE726000200D7
:1013B0007047000082B08DF8070048F20400C4F2C4
:1013C0000800006800909DF8070028B1FFE700982A
:1013D00040F00100009004E0009820F0010000902F
:1013E000FFE7009848F20401C4F20801086002B067
:1013F0007047000083B002908DF8071048F2240077
:10140000C4F20800006840F0010000909DF8070059
:1014100028B1FFE7029900980843009004E0029980
:10142000009888430090FFE7009848F22401C4F236
:101430000801086003B0704780B582B0019048F29F
:101440000401C4F208010868009000980322CFF25A
:10145000FB1210400090019A107892F801E092F887
:1014600004C0137D40EA0E00B2F802E040EA0E002C
:1014700040EA0C10B2F80CC040EA0C00B2F812C0FE
:1014800040EA0C0040EA8340D38A1843926940EA5C
:1014900042620098104300900198C08948F21402FB
:1014A000C4F2080210600198008A48F20C02C4F2EB
:1014B000080210600198806848F22C02C4F2080209
:1014C00010600098086002B080BD000048F2000182
:1014D000C4F208010020086048F20401C4F20801C7
:1014E000086048F20801C4F20801086048F21001DF
:1014F000C4F20801086048F21801C4F20801096842
:1015000048F22001C4F20801086048F22801C4F240
:101510000801086048F20C01C4F20801086048F2B2
:101520001401C4F20801086048F21C01C4F2080169
:10153000096848F22401C4F20801086048F22C014D
:10154000C4F208010860704783B00290029988686D
:10155000CB680A694969184310430843019002990E
:1015600008684A68896940EA027040EA4151019876
:10157000084301900020CFF21E0000900098002147
:10158000C0F2E1110843009048F20001C4F20801E2
:101590000868009A9043019A1043086003B07047AE
:1015A00081B000900099002008600099486000997F
:1015B00088600099C86000990861009948610099A5
:1015C000886101B07047000082B0ADF80600BDF838
:1015D000060040F6E44148431121C1F20101A0FB9D
:1015E0000110000AADF80400BDF8040049F69A1194
:1015F000C1F69911A0FB0110ADF80200BDF8020080
:1016000002B0704781B000900099002008700099E6
:101610004870009948800099087100998860009985
:1016200088810099C88100990882009948820099B0
:1016300008750099C8820099886101B07047000060
:1016400082B08DF8070048F23801C4F20D01086835
:1016500020F03F0000909DF8070000F03F02009846
:10166000104300900098086002B0704780B584B0C5
:1016700000F02AFE00F0CCFF012000F0BDFE00F0DB
:10168000E3FE012802D0FFE7FFE7FEE70220032187
:1016900000F07CFD012000F06DFD00F0ABFD0128A5
:1016A00002D0FFE7FFE7FEE70020029000F0E0FD38
:1016B0000120039000F0D0FD03990820019000F074
:1016C00033FF182000F03EFA0198029900F02CFF39
:1016D00003994FF0006000F027FF3620FFF7B0FFBE
:1016E0004FF4807000F0DAFD039940F21010C0F260
:1016F000100000F019FF04B080BD000086B08DF826
:1017000017008DF8161004928DF80F309DF8160012
:1017100038B9FFE748F20800C4F2020000680290FE
:1017200006E048F20C00C4F2020000680290FFE7F5
:1017300002989DF8171000EB011000900098806847
:1017400043F6F0718843049A6FF00F0101EB021128
:1017500008439DF80F100843019001980099886094
:1017600006B0704781B08DF803008DF802109DF827
:10177000020050B1FFE79DF803100120884048F2B5
:101780002801C4F20201086009E09DF8031001205D
:10179000884048F22C01C4F202010860FFE701B062
:1017A0007047000082B0019000910198007A0328F0
:1017B00005D1FFE7019800680099086009E0019AE7
:1017C000106851690139127A914008440099086003
:1017D000FFE70198007C042806D1FFE701984068E4
:1017E0000C300099486014E00198407A032805D134
:1017F000FFE7019840680099486009E0019A506845
:1018000051690139527A9140084400994860FFE7D4
:10181000FFE701990A7A4B7AC86840EA837040EA88
:1018200082600A6A1043CA6910438A6910434B698F
:101830006FF00F0202EB03121043097C084300997A
:10184000886002B07047000080B548F20403C4F21B
:1018500002030020186048F20801C4F20201086087
:1018600048F21401C4F20201086048F21801C4F2FF
:1018700002014FF0FF30086048F22001C4F202017B
:10188000086048F22C02C4F20202106048F23402EE
:10189000C4F20202106048F23C02C4F2020210607C
:1018A00048F24C0CC4F2020C0122CCF800201A6061
:1018B000086048F22801C4F202010860052000F027
:1018C00099F980BD82B08DF806008DF805109DF85D
:1018D0000500013801460091072868D80099DFE823
:1018E00001F0040E1825323F4C5948F20000C4F2B2
:1018F0000200006800F001008DF807005BE048F28C
:101900004C00C4F202000168012088438DF80700F2
:1019100051E048F22800C4F2020000689DF8061069
:10192000C84000F001008DF8070044E048F22000B4
:10193000C4F2020000689DF80610C84000F00100E3
:101940008DF8070037E048F21000C4F2020000688A
:101950009DF80610C84000F001008DF807002AE04D
:1019600048F21800C4F2020000689DF80610C84052
:1019700000F001008DF807001DE048F23000C4F2CD
:10198000020000689DF80610C84000F001008DF8C4
:10199000070010E048F23800C4F2020000689DF829
:1019A0000610C84000F001008DF8070003E0002099
:1019B0008DF80700FFE79DF8070002B070470000B0
:1019C00080B509200721FFF77DFF38B9FFE709201F
:1019D00001210A220323FFF791FE06E009200021DE
:1019E0000A220323FFF78AFEFFE780BD80B584B09B
:1019F0008DF80F00029140F60000C2F2000048F29C
:101A00000801C4F2020108600298006868B1FFE7AB
:101A1000029800689DF80F2040F60001C2F2000114
:101A200001EB0211FFF7BEFEFFE70298406880B1AC
:101A3000FFE748F20C00C4F2020000689DF80F10A6
:101A400000EB01100190029840680199FFF7AAFE8F
:101A5000FFE70298806840F0010048F20401C4F2F8
:101A6000020108600298407B01280AD1FFE79DF837
:101A70000F100120884048F21801C4F202010860EA
:101A800009E09DF80F100120884048F21C01C4F2C3
:101A900002010860FFE79DF80F10012000FA01F134
:101AA00048F22402C4F2020211609DF80F1088402F
:101AB00048F22801C4F2020108600298807B50B904
:101AC000FFE79DF80F100120884048F23401C4F26E
:101AD0000201086009E09DF80F100120884048F2DB
:101AE0003001C4F202010860FFE70298007B012880
:101AF0000AD1FFE79DF80F100120884048F2380115
:101B0000C4F20201086009E09DF80F10012088402E
:101B100048F23C01C4F202010860FFE704B080BD56
:101B200081B00090009900200860009948600099F9
:101B3000886000990873009948730099887301B010
:101B40007047000081B08DF803009DF8030048F253
:101B50000001C4F20101086001B0704783B00020A9
:101B600002900190FFE7019809280FDCFFE7019937
:101B700040F26040C2F2000030F8111002980844B0
:101B80000290FFE7019801300190ECE702984CF6D3
:101B9000CD41CCF6CC41A0FB0110C008ADF802004D
:101BA000BDF8020003B0704780B584B04FF48000E8
:101BB0000121009100F0B8FC40F63440C2F2000070
:101BC000019000F067FA00980199802203920A8040
:101BD000887000220A728872022048720020C4F2C3
:101BE0000B00029000F018F90298039900F03CFAFB
:101BF00004B080BD81B08DF803009DF9031001F0A1
:101C00001F02012090404A094EF28021CEF20001CD
:101C100041F8220001B0704781B08DF803009DF9B2
:101C2000031001F01F02012090404A094EF280117A
:101C3000CEF2000141F8220001B0704781B08DF86A
:101C400003009DF9031001F01F02012090404A0992
:101C50004EF20011CEF2000141F8220001B07047AF
:101C600081B08DF803009DF9031001F01F020120DF
:101C700090404A094EF20011CEF2000141F82200D4
:101C800001B0704781B08DF803009DF9031001F099
:101C90001F02012090404A094EF20011CEF20001CD
:101CA00041F8220001B0704781B08DF803009DF922
:101CB000031001F01F02012090404A094EF200116A
:101CC000CEF2000141F8220001B0704780B58CB01F
:101CD000ADF82E00BDF92E00463803F041F80A9009
:101CE0000A9809900A9940F68050C2F200000290CA
:101CF000006802F04DFF0146029801600021C4F225
:101D0000C8210891006802F0C1FF48B9FFE740F61A
:101D10008051C2F200010020C4F2C8200860FFE731
:101D200040F68050C2F2000000680021CCF2C821C9
:101D300002F0A5FF48B9FFE740F68051C2F200016A
:101D40000020CCF2C8200860FFE740F68050C2F2C5
:101D5000000000684CF6CD41C3F6CC5103F080F88A
:101D600007900A9840F68451C2F200010191096877
:101D700003F042F94DF20A71C3F6234103F070F803
:101D8000019906900A9808600998079902F000FFE7
:101D9000069902F0FDFE05904FF0804004900599F1
:101DA000084602F0F5FE0021C4F2482102F0F0FEE0
:101DB00003900398002102F062FF18B9FFE70020AA
:101DC0000390FFE703980021C4F2C82102F05EFFF0
:101DD00028B9FFE70020C4F2C8200390FFE703986A
:101DE00002F0A2FF00F072F90CB080BD81B000904B
:101DF000009900204860009988600099C8600099A7
:101E0000886100994861009908600099086100990B
:101E1000C86101B0704700008FB00E900D910E9810
:101E200040680C900E9880680B900E98C0680A90DD
:101E30000E98006909900E98406908900E98806984
:101E400007900E98C069069000200490012103912C
:101E5000032102914FF00111019100900D9800882B
:101E60000590FFE70598002869D0FFE79DF814006A
:101E7000C007002852D0FFE70C98039988430D99BA
:101E80008978049A914008430C900B9802998843F2
:101E90000D99097A049A5200914008430B900A98D0
:101EA000039988430D99897A049A914008430A90CE
:101EB0000998019988430D99049A02F1100CCB7886
:101EC000097903FA0CF318439140084309900898E4
:101ED000019988430D99049A02F1100C4B79897984
:101EE00003FA0CF3184391400843089007980299AD
:101EF00088430D99497A049A52009140084307900B
:101F00000698039988430D99C979049A914008432A
:101F100006900299009808430090FFE7039840005C
:101F2000039002988000029001984000019004986C
:101F300001300490FFE705984008059092E70D985E
:101F4000008805900E9B059840F01F010022C4F206
:101F50000C02934208BF084605900E9B009840F281
:101F6000FF310143934208BF084600900E984FF09E
:101F7000FF3190420B4608BF6FF01F030C981840CA
:101F80000C900E9890420B4608BF6FF01F030A9802
:101F900018400A900E9890420B4604BF4FF600433B
:101FA000CFF6FF730B9800EA03000B900E98904257
:101FB0000B4608BF6FF01F130998184009900E9840
:101FC00090420B4608BF6FF01F1308981840089006
:101FD0000E9890420B4604BF4FF60043CFF6FF73B6
:101FE000079800EA030007900E98904208BF6FF030
:101FF0001F01069808400690059A0E99486890437C
:102000004860009A0E99886890438860059A0E99F6
:10201000C8689043C86009980E99086107980E999E
:10202000886108980E99486106980E99C8610A98C7
:102030000E99C8600B980E9988600C980E994860AC
:102040000FB0704782B001900091009A019942F060
:102050001F000023C4F20C03994208BF024608681F
:102060009043086002B0704782B0019000910098E0
:1020700001990968084301990023C4F20C034FF049
:10208000FF32994208BF6FF01F021040086002B093
:102090007047000081B0009000994FF6FF700880F3
:1020A0000099002088700099C87000990871009903
:1020B0004871009988710099C87100990872009957
:1020C00048720099887201B07047000080B582B0F4
:1020D000ADF80600BDF80600092804DCFFE70A2079
:1020E000ADF8060009E0BDF80600652804DBFFE74F
:1020F0006420ADF80600FFE7FFE7BDF8060000EB3F
:102100008000000245F62941C0F28F21A0FB01109A
:102110000090009940F20000C2F2000001800288A5
:102120000020C4F20800002100F0EEFC02B080BDE7
:1021300080B584B04FF480000121019100F0F4F9E2
:102140000020C4F20B000290FFF750FE40F64C4016
:10215000C2F200000390FFF79DFF019B02980399D4
:102160000B808B7002220A728B724A72FFF754FE48
:1021700004B080BD81B08DF803009DF80300882174
:10218000C4F24021086001B07047000083B08DF8B0
:102190000B0001910C21C4F2020108680090009824
:1021A00020F0030000909DF80B2000981043009051
:1021B000009808600421C4F20201086800900098A9
:1021C00020F470600090019A009840EA022000908C
:1021D000009808608820C4F24020006840B1FFE702
:1021E0008C21C4F240210120086000200860FFE734
:1021F00003B0704780B584B000200390FFE7212032
:1022000000F0CEF88DF80A00039801300390FFE744
:1022100003990020490A0229019007D8FFE79DF899
:102220000A00B0FA80F040090190FFE70198C0076A
:102230000028E4D1FFE7212000F0B2F820B1FFE749
:1022400001208DF80B0003E000208DF80B00FFE764
:102250009DF80B0004B080BD81B08DF803009DF89F
:10226000030040F28811C4F24021086001B07047B9
:1022700082B08DF807000C21C4F2020108680090BA
:10228000009820F0F00000909DF80720009840EAA8
:10229000021000900098086002B0704782B0ADF85C
:1022A00006000C21C4F2020108680090009820F496
:1022B00040700090BDF806200098104300900098F0
:1022C000086002B07047000080B584B01C21C4F2E1
:1022D00002011020C0F60000086048F23800C4F285
:1022E0000D0000680390039800F03F000146029142
:1022F0003F2800F23C800299DFE801F02B393939A0
:10230000393939393920393939393939393920396F
:102310003939393939393920393939393939393946
:102320002039393939393939392E39393939393941
:1023300039392E39393939393939392E039820F05C
:102340003F0048F23801C4F20D01086000F006F9C0
:1023500024E000F003F921E000F000F9039820F0F8
:102360003F0048F23801C4F20D01086016E00398FE
:1023700020F03F000390039840F03600039003984C
:1023800048F23801C4F20D010191086000F0E6F84E
:102390000199039820F03F000860FFE704B080BD7A
:1023A00083B08DF80B009DF80B0000F0E0002028B2
:1023B00006D1FFE70020C4F202000068019006E0A9
:1023C00048F23C00C4F20D0000680190FFE701985C
:1023D0009DF80B1001F01F01C840C00720B1FFE7B6
:1023E00001208DF8030003E000208DF80300FFE7D3
:1023F0009DF8030003B0704782B08DF807000821F4
:10240000C4F20201086820F0030008609DF807008C
:1024100001460091012804D0FFE70098022808D067
:102420000FE00821C4F20201086840F001000860D2
:1024300008E00821C4F20201086840F003000860C7
:1024400000E0FFE702B0704780B584B00020039041
:10245000FFE72220FFF7A4FF8DF80A000398013060
:102460000390FFE703990020490A0229019007D849
:10247000FFE79DF80A00B0FA80F040090190FFE7FD
:102480000198C0070028E4D1FFE72220FFF788FF6A
:1024900020B1FFE701208DF80B0003E000208DF84C
:1024A0000B00FFE79DF80B0004B080BD81B08DF8F4
:1024B00003009DF8030040F2D871C4F2B031086007
:1024C00001B0704780B584B000200390FFE717206B
:1024D000FFF766FF8DF80A00039801300390FFE7CD
:1024E00003990020490A0229019007D8FFE79DF8C7
:1024F0000A00B0FA80F040090190FFE70198C00798
:102500000028E4D1FFE71720FFF74AFF20B1FFE7DB
:1025100001208DF80B0003E000208DF80B00FFE791
:102520009DF80B0004B080BD82B001908DF80310BF
:102530009DF8030040B1FFE7019A1C21C4F202019B
:1025400008681043086007E0019A1C21C4F20201E8
:10255000086890430860FFE702B0704780B51C210F
:10256000C4F202011020C0F6000008600120FFF74D
:102570009DFFFFF7A7FF0C21C4F2020100200860B5
:102580000421C4F2020108600821C4F202010860BB
:102590001021C4F2020108601421C4F20201086093
:1025A0002021C4F2020108602421C4F20201086063
:1025B0002821C4F2020108602C21C4F20201086043
:1025C00080BD000080B582B004200121FFF7ACFF80
:1025D00040F66840C2F2000002210191017005211D
:1025E000417040F67441C2F2000110228A6020233B
:1025F0004B600A6000F04EFE1F2001F097FD00F0D6
:102600007DFE0198FFF72CFB00F03AFD02B080BD83
:1026100085B00C20C4F2020000688007002806D5AF
:10262000FFE741F20020C0F27A00049005E041F299
:102630000020C0F27A000490FFE70C20C4F20200F0
:102640000068C00720B1FFE7049840080490FFE746
:10265000049803900C20C4F2020000684007002890
:102660000DD5FFE70420C4F202000068C0F3032088
:10267000013001900199039848430390FFE70C2033
:10268000C4F202000068C0F301200146009140B18D
:10269000FFE7009801280ED0FFE7009802281CD021
:1026A00023E040F20401C2F2000141F20020C0F236
:1026B0007A00086021E003980C21C4F20201096845
:1026C000C1F303110131B0FBF1F00290029840F226
:1026D0000401C2F2000108600FE040F20401C2F2FE
:1026E00000014FF40040086007E040F20401C2F22C
:1026F000000149F640400860FFE705B07047000060
:1027000080B540F20000C0F600004EF60851CEF24F
:10271000000108601C21C4F20201102008600C2195
:10272000C4F20201002008600421C4F20201086022
:102730000821C4F2020108601021C4F202010860FD
:102740001421C4F2020108601821C4F202010860D9
:102750002021C4F2020108602421C4F202010860B1
:102760002821C4F2020108602C21C4F20201086091
:10277000FFF74EFF80BD000083B002908DF8071078
:102780002420C4F202000068009002980021C4F2E4
:10279000070188420ED1FFE7009820F0FF0000906B
:1027A0009DF80710009808430090009840F0807052
:1027B00000902EE0029848F20001C4F2070188421E
:1027C0000FD1FFE7009820F47F4000909DF807109C
:1027D000009840EA01200090009840F000700090BE
:1027E00016E002980021C4F2080188420FD1FFE7E9
:1027F000009820F47F0000909DF80710009840EAB0
:1028000001400090009840F080600090FFE7FFE7F3
:10281000FFE700982421C4F20201086003B070476A
:1028200085B00490039103994888CA8810430A89A7
:1028300010434A8910438A8940EA8210CA891043AA
:10284000098A084301900398808828B1FFE701981E
:1028500040F480700190FFE703980088029001988F
:102860000499029A01EB820108620399488AC98A95
:10287000084300900398808A28B1FFE7009840F051
:1028800004000090FFE70398008B28B1FFE7009851
:1028900040F010000090FFE700980499029A01EBC5
:1028A0008201086605B0704785B0049003910399D2
:1028B000488800018A8840EA8200CA8810430A8951
:1028C00040EA02304A8940EA8220898940EA0120B0
:1028D000019003980088029001980499029A01EBF4
:1028E000820108630399CA89088A40EA0220498A5A
:1028F0000843009000980499029A01EB8201086451
:1029000005B0704781B000900099002008800099C0
:102910004880009988800099C880009908810099B2
:102920004881009988810099C8810099088200999E
:10293000488201B07047000081B0009000990020EB
:10294000088000994880009988800099C880009983
:10295000088100994881009988810099C88100996F
:10296000088200994882009988820099C88200995B
:102970000120088301B0704782B001900091009857
:10298000C0430199486502B07047000083B00290CF
:102990008DF807100298C06800909DF8070028B1D4
:1029A000FFE7009840F00100009004E0009820F05C
:1029B00001000090FFE700980299C86003B07047DB
:1029C00084B00390029102980088039908600298ED
:1029D000408803994860029880880399886002992A
:1029E000C8880A8910434A8910438A891043C989D3
:1029F0000843019001980399C86002990A8A488A9D
:102A000040EA02108A8A1043C98A0843009000985D
:102A10000399086504B0704781B0009000990020C8
:102A2000C860009908600099486000998860009922
:102A3000086200994862009988620099C86200990A
:102A4000086300994863009988630099C8630099F6
:102A5000086600994866009988660099C8660099DA
:102A6000086100994861009988610099C8610099DE
:102A7000086700994867009988670099C8670099B6
:102A8000086400994864009988640099C8640099B2
:102A9000086500994865009988650099C86501B086
:102AA0007047000083B0029001910298406D019937
:102AB000084204D1FFE700208DF8030003E0012065
:102AC0008DF80300FFE79DF8030003B07047000096
:102AD00084B0039002918DF807200398806D0090D8
:102AE0009DF8070028B1FFE702990098084300907D
:102AF00004E00299009888430090FFE7009803994A
:102B0000886504B07047000083B002908DF807100C
:102B1000ADF8042002989DF8071000EB81001030FA
:102B20000090BDF804000099086003B070470000F1
:102B300080B50020C4F207000121FFF7B3FF70B396
:102B4000FFE70020C4F207000121FFF715FF40F660
:102B50004040C2F20000006868B9FFE70020C4F2FC
:102B60000B008021FFF780FA40F64041C2F20001DD
:102B7000012008600CE00020C4F20B008021FFF768
:102B800061FA40F64041C2F2000100200860FFE710
:102B900040F61E61C2F2000101200870FFE780BD0F
:102BA00080B586B04FF4803001210591FFF7BCFC61
:102BB0000020C4F208000490FFF72EFF049840F6AE
:102BC0000661C2F20001002203924A8040F20153E2
:102BD0008B80CA800A814A818A81CA810A824A829C
:102BE0008A82CA82FFF7ECFE40F6D850C2F200009B
:102BF0000190FFF7A1FE0199039A04984A804FF4CF
:102C000040634B810A80FFF70BFE0399049840F262
:102C10000002C2F200021288FFF776FF40F6F2507F
:102C2000C2F200000290FFF76DFE0299039A049829
:102C3000059B4A804FF0020CA1F804C0CB800A81AA
:102C4000A1F80AC08B810A80FFF72EFE0399049831
:102C5000FFF792FD04980599FFF798FE06B080BD36
:102C600080B584B04FF4804001210391FFF75CFCF4
:102C70000020C4F207000290FFF7CEFE0298002168
:102C80000191FFF779FD019A029840F6C051C2F216
:102C900000010A8041F63F734B8040F69F738B80A2
:102CA000CA800A814A818A81CA810A824A828A82CA
:102CB000CA82FFF785FE02980399FFF75DFE02982E
:102CC000039A1146FFF704FF02980399FFF75EFE8F
:102CD0000E20FEF7D7FF04B080BD000082B0019047
:102CE0001021C4F2020108680090009840F480703E
:102CF000009001980278009810430090009840F0EE
:102D000004000090009808600421C4F202010868E1
:102D10000090009840F001000090019842780098DF
:102D200040EA0210009000980860FFE70020C4F21B
:102D30000200006800F00100012801D0FFE7F5E77C
:102D400002B0704780B584B00020ADF80E0040F6A8
:102D50006A40C2F200004188ADF80C108188ADF8DD
:102D60000A10C188ADF8081040780146019120286A
:102D700004D0FFE7019821281AD042E0BDF80800EE
:102D8000072810D1FFE7BDF8082040F2D841C2F271
:102D9000000142F65D63C0F60003002000F0ECFF86
:102DA000ADF80E0003E00220ADF80E00FFE72CE0C6
:102DB000BDF8080007281FD1FFE7BDF80A0040F260
:102DC000D841C2F2000100F0CFF8ADF80E00BDF816
:102DD0000E0080B9FFE7BDF8082040F2D841C2F2EA
:102DE000000143F27523C0F60003002000F08EFFBF
:102DF000ADF80E00FFE703E00220ADF80E00FFE79C
:102E000003E00120ADF80E00FFE7BDF80E0008BB9F
:102E1000FFE7BDF80800E8B9FFE740F66A40C2F2F4
:102E2000000000780006002808D5FFE700231846B8
:102E300019461A4600F0A0FF009007E0002318464C
:102E400019461A4600F062FF0090FFE70098ADF8BF
:102E50000E00FFE7BDF80E0004B080BD80B586B05F
:102E60008DF817000491039240F66A40C2F2000008
:102E7000407820280BD1FFE740F66A40C2F20000FC
:102E80008088049900F05AF9ADF80A0003E00220A6
:102E9000ADF80A00FFE7BDF80A0048B9FFE79DF862
:102EA0001700002319461A4600F030FF019003E096
:102EB000BDF80A000190FFE7019880B206B080BD1E
:102EC00080B586B0ADF81600ADF81410ADF812203C
:102ED00000200390ADF806009DF8160020B1FFE732
:102EE0000120ADF8060020E0BDF81600000A0146FA
:102EF0000091012804D0FFE70098022808D00FE0D5
:102F000040F24B00C2F200000390122002900BE04E
:102F100040F20800C2F2000003904320029003E058
:102F20000120ADF80600FFE7FFE7BDF80600B0B9E5
:102F3000FFE70298BDF81210884204D9FFE7BDF8F8
:102F400012000290FFE70399029A43F27523C0F63C
:102F50000003002000F0DAFEADF80600FFE7BDF840
:102F6000060006B080BD000082B0ADF804000091FC
:102F7000BDF8040020B1FFE70220ADF806000CE028
:102F8000009940F64442C2F20002106852684A605A
:102F900008600020ADF80600FFE7BDF8060002B0AB
:102FA0007047000080B584B0039002918DF807202F
:102FB0000398029900F0E0F840F65C42C2F2000289
:102FC000002010819DF80710B1FA81F149094902EA
:102FD000518104B080BD000080B584B08DF80D0033
:102FE000029101920298019900F03CF8ADF80200BC
:102FF000BDF8020040B1FFE740F65C41C2F20001BB
:103000004FF400704881FFE740F65C40C2F20000D8
:10301000408980B9FFE740F65C40C2F200000168D9
:10302000426842F6D973C0F60003032000F0A4FE04
:10303000ADF80E0003E00020ADF80E00FFE7BDF88C
:103040000E0004B080BD000083B08DF80B0001912C
:10305000009240F65C41C2F200010020088103B0FA
:103060007047000080B584B00390029103980299E4
:1030700000F03EF8ADF80600002004B080BD00006E
:1030800080B584B000F046F9ADF80E00BDF80E0032
:1030900050BBFFE701200190052100910022029220
:1030A00000F0BEFB0099029A022000F0B9FB0199E2
:1030B000029A032000F0B4FB40F65C40C2F200002C
:1030C000408980B9FFE740F65C40C2F20000016829
:1030D000426842F6D973C0F60003032000F04CFEAC
:1030E000ADF80E00FFE7FFE7BDF80E0004B080BDAD
:1030F00080B584B00390029140F65C40C2F20000BB
:103100000089ADF80600BDF8060098B9FFE740F663
:103110005C41C2F200014FF4007008810399029AE9
:1031200043F24903C0F60003012000F0EFFDADF8C3
:103130000600FFE7BDF8060004B080BD82B0ADF820
:1031400004000091BDF8040020B1FFE70220ADF8B3
:1031500006000CE0009908684A6840F64441C2F253
:1031600000014A6008600020ADF80600FFE7BDF8E6
:10317000060002B07047000082B0019000910198F3
:1031800040F65C41C2F200010860009848600020EF
:1031900002B0704780B582B08DF80500ADF802101E
:1031A000ADF800209DF8050002280BD1FFE7BDF81F
:1031B000020038B9FFE79DF8000000F0FFFAADF813
:1031C000060003E00120ADF80600FFE7BDF80600A9
:1031D00002B080BD80B584B00020ADF806000220AA
:1031E000FEF71AFD40F68C40C2F200000068E8BB12
:1031F000FFE740F68C41C2F200010120086000F0B8
:10320000B7FE02909DF80800400700280ED5FFE7A2
:1032100000F080F8ADF8060040F68040C2F20000F1
:1032200000218160806800F00FFFFFE7002003901D
:10323000FFE7039803280AD8FFE79DF80C000299DE
:1032400000F07EFBFFE7039801300390F1E702985E
:1032500020F0010000F082FF40F68C41C2F2000134
:10326000002008600220FEF71FFDFFE7BDF8060002
:1032700004B080BD80B584B08DF80F00029101923A
:103280009DF80F00002319461A4600F075FD04B0A2
:1032900080BD000080B584B0039002910398FFF7D1
:1032A0001DFD00F06FFE4FF4803000F0B5FE029877
:1032B000006800F0B1FE029948688968084340F050
:1032C000010000F0CBFE052100220192104600F023
:1032D000A7FA019840F66A41C2F2000143F269324E
:1032E000C0F6000200F0D2FD019840F68041C2F223
:1032F00000010870886004B080BD000080B50C201B
:1033000000F08AFE40F68041C2F2000102200870FF
:10331000002080BD40F68041C2F200010320087009
:103320000020704780B582B08DF80500ADF802101E
:10333000ADF800209DF8050002280CD1FFE7BDF88C
:10334000020040B9FFE79DF80000012100F0B8FA43
:10335000ADF8060003E00120ADF80600FFE7BDF878
:10336000060002B080BD000080B58CB08DF82F0043
:103370000A910020ADF824000A98007800F060005F
:103380008DF827000A98007800F080008DF826005C
:103390009DF827000146059150B1FFE705982028C8
:1033A00000F0E281FFE70598402800F0E281E4E1C7
:1033B000002006900A984088ADF822000A9880887C
:1033C000ADF820000A98C088ADF81E000A98007871
:1033D00000F01F008DF81D009DF81D00042804DB7F
:1033E000FFE70220ADF82400CBE10A9840780146BF
:1033F00004910C2800F28F810499DFE811F00D0090
:1034000076008C019D008C01C400D400DF00E30035
:1034100009012801470167019DF82600802817D17E
:10342000FFE740F68040C2F200000078042813D184
:10343000FFE79DF81D0001280AD0FFE79DF81D0059
:10344000022809D1FFE7BDF82000042804DBFFE7CC
:103450000120ADF8240047E00020ADF82400BDF8BD
:10346000240000283FD1FFE79DF81D00014603918D
:1034700040B1FFE7039801280BD0FFE7039802282B
:103480000ED01DE040F65841C2F200010020087045
:1034900017E040F65841C2F200010020087010E029
:1034A000BDF8200040F69042C2F200022C2100FB41
:1034B0000120407840F65841C2F20001087000E057
:1034C000FFE740F65841C2F20001002048709DF825
:1034D0002F0043F27523C0F60003022200F016FC11
:1034E000ADF82400FFE7FFE719E140F68040C2F2A3
:1034F00000000078042813D1FFE79DF81D00012883
:103500000AD0FFE79DF81D00022809D1FFE7BDF8AA
:103510002000042804DBFFE70120ADF824000AE0C6
:103520009DF81D00BDF82210BDF82020FFF732FEE7
:10353000ADF82400FFE7F2E040F68040C2F2000060
:103540000078042813D1FFE79DF81D0001280AD058
:10355000FFE79DF81D00022809D1FFE7BDF8200014
:10356000042804DBFFE70120ADF824000AE09DF801
:103570001D00BDF82210BDF82020FFF7D3FEADF8E6
:103580002400FFE7CBE00020ADF82400BDF82200C6
:1035900040F68041C2F20001886043F28D70C0F6AF
:1035A00000000690BBE0BDF82200BDF82010BDF879
:1035B0001E20FFF785FCADF82400B0E00120ADF837
:1035C0002400ACE040F68040C2F2000000780428FD
:1035D00007D1FFE740F65841C2F200010020087011
:1035E00006E040F65841C2F2000101200870FFE7F2
:1035F0009DF82F0040F65841C2F2000143F27523B6
:10360000C0F60003012200F081FBADF8240086E043
:10361000BDF8220038B9FFE740F68041C2F2000150
:103620000420087012E0BDF82200013818BF012004
:10363000ADF82400BDF8240038B9FFE740F680411A
:10364000C2F2000105200870FFE7FFE767E040F6DF
:103650008040C2F200000078042804D1FFE7012076
:10366000ADF8240011E040F65841C2F200010020FC
:1036700008709DF82F0043F27523C0F60003012265
:1036800000F044FBADF82400FFE748E040F680403E
:10369000C2F200000078042804D1FFE70120ADF851
:1036A000240012E0BDF820100020029039B9FFE795
:1036B000BDF82200B0FA80F040090290FFE70299BD
:1036C00001208843ADF82400FFE728E040F6804061
:1036D000C2F200000078042804D1FFE70120ADF811
:1036E000240017E00120ADF82400BDF8240080B9C3
:1036F000FFE79DF82F0040F65841C2F2000143F267
:103700007523C0F60003022200F000FBADF8240090
:10371000FFE7FFE703E00220ADF82400FFE7BDF874
:10372000240000BBFFE7BDF81E00E0B9FFE70A98E0
:1037300000780006002809D5FFE79DF82F00069BBA
:103740000022114600F018FB019008E09DF82F00C0
:10375000069B0022114600F0D9FA0190FFE701987C
:10376000ADF82400FFE70CE0FFF7ECFAADF8240019
:1037700007E00120ADF8240003E00220ADF82400AA
:10378000FFE7BDF824000CB080BD000080B584B018
:103790008DF80F000291019240F68040C2F20000C5
:1037A0000090806800F050FC00998A680320002A8D
:1037B00018BF04200870002004B080BD80B584B01C
:1037C0008DF80F009DF80F0040F69042C2F2000203
:1037D0002C2100FB012002904FF400200190029860
:1037E000407E20B9FFE70298807E40B1FFE7029952
:1037F00001200870019840F00200019003E0029956
:1038000000200870FFE702990020009048709DF8A2
:103810000F00019900F038F8009804B080BD000056
:1038200080B586B08DF81700049103929DF81700BB
:1038300040F69042C2F200022C2100FB01200290CF
:1038400002990020019048600299886002990861FD
:103850000299C860029948610299C8610299086298
:10386000029948620399029A9162029948700299FA
:103870000870029908769DF81700049900F006FC7C
:10388000019806B080BD000080B584B08DF80F00AF
:1038900002919DF80F0040F69042C2F200022C21E6
:1038A00000FB012001901F2000F058FC019900202E
:1038B00008769DF80F00029900F0E8FB04B080BD87
:1038C00080B584B08DF80D008DF80C109DF80D00BA
:1038D00040F69042C2F200022C2100FB012002902F
:1038E000002001909DF80C00012808D1FFE79DF809
:1038F0000D0020B9FFE70120ADF80E001BE09DF898
:103900000C00012804D0FFE70298807E50B1FFE749
:103910009DF80C00029948700299052008700A2051
:103920000190FFE79DF80D000199FFF7ADFF002022
:10393000ADF80E00FFE7BDF80E0004B080BD00003A
:1039400080B58CB08DF82D000A9100208DF82700ED
:10395000ADF824009DF82D0000F0EEFA08909DF8D7
:103960002D0000F0F7FA00F0030007909DF82D00FD
:1039700000F0B8FA06909DF82D0040F69042C2F291
:1039800000022C2100FB012003909DF82800C007B5
:1039900020B1FFE7039901200876FFE7FFE70398CE
:1039A000007801460291052800F29F810299DFE824
:1039B00011F006000A004000C0002A018401002026
:1039C000ADF82E009DE19DF81800800700282FD447
:1039D000FFE70398007E58B3FFE7079802280ED14F
:1039E000FFE70398407E50B1FFE70399032008707A
:1039F00003990020487601208DF8270017E00798EA
:103A000058B9FFE70398807E38B1FFE70399042097
:103A1000087001208DF8270008E00120ADF824008F
:103A20009DF82D000021FFF74BFFFFE7FFE7FFE7C1
:103A30005BE19DF818008007002847D4FFE7039852
:103A4000007E002842D0FFE7079801283ED1FFE71B
:103A50009DF820004006002838D5FFE70399C86884
:103A60000A691044C86003988168C068884226D3F8
:103A7000FFE70399002008700398C06950B1FFE781
:103A8000039841688268C3699DF82D009847ADF896
:103A90002400FFE7BDF8240050B9FFE70398007841
:103AA00028B9FFE79DF82D00FFF788FEFFE705E046
:103AB0009DF82D000021FFF703FFFFE705E09DF8CB
:103AC0002D00012100F082F9FFE731E09DF8200090
:103AD000000760B3FFE70399002008700398806A2D
:103AE00060B1FFE70398D0F828C09DF82D00089931
:103AF000079A069BE047ADF82400FFE7BDF82400D5
:103B000070B9FFE70398007848B9FFE703990220EE
:103B100008709DF82D00002100F058F9FFE705E03E
:103B20009DF82D000021FFF7CBFEFFE7FFE7FFE741
:103B3000DBE09DF818008007002863D4FFE70398B6
:103B4000007E00285ED0FFE7002001908DF827005E
:103B50009DF82D0000F0E2F90146019804910590CE
:103B6000FFE70598049988420FD2FFE79DF82D00E2
:103B700000F0C6F9039A5168D268059B1A4488542C
:103B8000FFE7059801300590EBE79DF82D00012136
:103B900000F09CFA049A0399C8681044C86003981E
:103BA0008168C068884226D3FFE703990020087027
:103BB0000398006A50B1FFE703984168C268036A3E
:103BC0009DF82D009847ADF82400FFE7BDF82400CC
:103BD00050B9FFE70398007828B9FFE79DF82D005A
:103BE000FFF7ECFDFFE705E09DF82D000021FFF752
:103BF00067FEFFE705E09DF82D000221FFF744FE78
:103C0000FFE7FFE771E00398007E002851D0FFE74F
:103C10009DF82D0000F082F904900498082838D10E
:103C2000FFE700200590FFE70598049988420DD230
:103C3000FFE79DF82D0000F063F903994969059AA3
:103C40008854FFE7059801300590EDE79DF82D00B9
:103C5000012100F03BFA03984169426A9DF82D006A
:103C60009047ADF82400BDF8240058B9FFE7039849
:103C70000078042805D1FFE79DF82D00FFF79EFD91
:103C8000FFE705E09DF82D000021FFF719FEFFE793
:103C90000EE09DF82D000121009100F017FA009828
:103CA000ADF824009DF82D000021FFF709FEFFE785
:103CB000FFE700208DF8270017E09DF81800800727
:103CC000002811D4FFE703984078012806D1FFE7C8
:103CD0009DF82D000121FFF7F3FD04E09DF82D0074
:103CE000FFF76CFDFFE7FFE7FFE7FFE79DF8270021
:103CF00000287FF454AEFFE7BDF82400ADF82E0095
:103D0000FFE7BDF82E000CB080BD000080B588B084
:103D10008DF81F000691059204939DF81F0040F650
:103D20009042C2F200022C2100FB01200390039874
:103D3000817E0120002918BF02208DF80B00069813
:103D400003994860059803998860039940200861A9
:103D5000039900200190C86004980399C8619DF8F8
:103D60001F009DF80B1000F031F80198039A022112
:103D7000117008B080BD000080B586B08DF81700C6
:103D80000491039202939DF8170040F69042C2F20C
:103D900000022C2100FB0120019004980199486049
:103DA00003980199886001990020009008610199A9
:103DB000C8600298019908620199012048769DF82F
:103DC0001700FFF7FBFC009806B080BD80B586B0F9
:103DD0008DF817008DF816109DF8170040F69042E8
:103DE000C2F200022C2100FB012004909DF8170074
:103DF000012100F08BF99DF816000146019140B1B8
:103E0000FFE70198012805D0FFE70198022806D0B6
:103E10000BE00AE09DF8170000F0CCF805E09DF8F3
:103E20001700042100F032F9FFE7049A9168D06886
:103E300012691044884206D2FFE70499C8680969EC
:103E40000844009003E0049880680090FFE7009821
:103E500002900498C0680390FFE703980299884293
:103E60000DD2FFE79DF8170004994968039A895C11
:103E700000F03CF9FFE7039801300390EDE79DF86F
:103E800017000221FFF700FD06B080BD80B586B0A7
:103E90008DF81700049103929DF8170040F69042A8
:103EA000C2F200022C2100FB01200290049802992A
:103EB0004861029900200190886002990861029986
:103EC000C8600398029948620398002818BF01202F
:103ED000029988769DF81700FFF770FC019806B0EC
:103EE00080BD000081B08DF803009DF80300010142
:103EF00040F20010C4F20100405801B070470000C9
:103F000081B08DF803009DF80300C10140F28010DC
:103F1000C4F20100405801B07047000081B08DF834
:103F200003009DF80300C10140F28C10C4F20100AF
:103F3000405801B07047000081B08DF803009DF833
:103F40000300010140F20410C4F20100405801B026
:103F50007047000081B08DF803009DF80300010157
:103F600040F20810C4F20100405801B07047000050
:103F700040F24810C4F201000068704780B5FFF7B6
:103F800029F980BD80B582B0022000F045F80020FC
:103F90000190FFE70198C0087C2805D8FFE7FFE7FC
:103FA000019801300190F5E74FF4003000F034F84B
:103FB00002B080BD82B08DF807009DF807000001B7
:103FC00040F20011C4F2010108580090009880F0FE
:103FD0000400009000989DF807201201885002B05C
:103FE0007047000080B584B0ADF80E00BDF80E300B
:103FF00040F64050C2F20000019045F2E812C0F6CF
:1040000000024021FCF74AF9014601980291029909
:10401000FFF76EF804B080BD82B00190FFE740F278
:104020008031C4F2010108680090BDF804200098B6
:1040300010430090BDF8062000989043009000982F
:104040000860FFE702B0704781B00090009840F22E
:104050005011C4F20101086001B0704782B00190B4
:10406000FFE740F24011C4F2010108680090BDF87A
:104070000420009810430090BDF80620009890435B
:10408000009000980860FFE702B0704783B08DF899
:104090000B000191FFE79DF80B00000140F20011B9
:1040A000C4F2010108580090BDF8042000981043A4
:1040B0000090BDF8062000989043009000989DF86D
:1040C0000B2012018850FFE703B0704782B08DF8D3
:1040D0000700009100989DF80710CA0140F2901166
:1040E000C4F20101885002B07047000082B08DF820
:1040F0000700009100989DF80710CA0140F2C01116
:10410000C4F20101885002B07047000082B08DF8FF
:104110000700009100989DF80710CA0140F2D011E5
:10412000C4F20101885002B07047000082B00190D3
:10413000FFE740F24C11C4F2010108680090BDF89D
:104140000420009810430090BDF80620009890438A
:10415000009000980860FFE702B0704781B00090BF
:10416000009840F24811C4F20101086001B07047A4
:1041700040F64441C2F200014FF4E13008600020F3
:1041800008714871082088717047000080B586B0BA
:104190004FF40030019001210591FEF7C5F9FDF7BC
:1041A00095F940F68850C2F200000290FDF7F8F948
:1041B000019B02980599002204920260426083608C
:1041C000C260026142618161FDF7BEF940F6A45010
:1041D000C2F200000390FDF715FA039804990170EC
:1041E0000822427041800222027181608181C18176
:1041F0000182418201754FF4C041C1820721816172
:10420000FDF71AF904994FF4C010FDF7F3F805987B
:10421000FDF7D0F80520FDF711FD06B080BD0000C8
:10422000F0B587B04EF28021CEF200014FF0FF30A2
:1042300008604EF28011CEF20001086020200125B6
:1042400006952946FEF770F9FDF7FEFA40F6104193
:10425000C2F20001019148F21C07C4F208070F6086
:1042600040F26046C2F200064E604FF0030E81F845
:1042700008E04D724FF08854CC6081F810E04FF0A8
:104280000A0CC1F814C0002303938B614FF4802201
:10429000CA614FF40010086240F2E041C2F200012E
:1042A00002910F604E6081F808E04D72CC6081F899
:1042B00010E0C1F814C08B61CA61086240F600408A
:1042C000C2F200000490FDF72BFC019B029A0398B8
:1042D00004990B604A60087348738873092005903D
:1042E000FDF784FB05980699FDF73CFA07B0F0BD91
:1042F00080B582B000200190FDF7B8F9FFF790FF7C
:10430000FFF744FFFDF714FFFEF74AFCFDF74CFCF6
:10431000FEF7A6FCFFF72CFF40F27440C2F200004B
:1043200001221146FEF73EFEFEF74CF9FFE7FDF7CE
:1043300015FCADF80200BDF80200FDF745F9ADF837
:104340000000BDF90000FDF7C1FC40F61E60C2F29E
:104350000000007858B1FFE740F61E61C2F200018C
:1043600000200870BDF80000FFF73CFEFFE7DEE725
:104370005FEA400C08BF91F0000F4FEA8C234FEA30
:10438000C12243EA51514FEA1C5018BF00F5F040DA
:104390004FEA300018BF41F000415FEA6C5C00F06A
:1043A0002980BCF1FF3F08BF40F080407047130CEC
:1043B00006BF12044FF0100C4FF0000C130E04BF98
:1043C00012020CF1080C130F04BF12010CF1040CC3
:1043D000930F04BF92000CF1020CD30F04BF5200E4
:1043E0000CF1010C11464FF00002A0F11F00A0EBF0
:1043F0000C00704711F0004F08BF704731F00041CA
:104400003FF4D5AF0B0C06BF09044FF0100C4FF072
:10441000000C0B0E04BF09020CF1080C0B0F04BFBB
:1044200009010CF1040C8B0F04BF89000CF1020C84
:10443000CB0F04BF49000CF1010CCCF1200322FA90
:1044400003F341EA030102FA0CF2A0EB0C0000F1C5
:104450000100704723F07F4720F07F4C80EA030083
:1044600000F00040ACEB070303F57C5303F1FF03BE
:104470002DE9804909B44FEA144324EA03484FEA7E
:10448000154B25EA0B4E0FF2042606EB13273E7858
:1044900003FB0667C7F5000707FB06F64FEAD6469B
:1044A00006F102064FEA543707FB066CCCF1005CBC
:1044B0004FEA1C472CEA074C0CFB06F507FB06F4F9
:1044C00004EB15464FEA961649085FEA320234BFFC
:1044D00000204FF000404FEAD13706FB07FC4FEABF
:1044E0001C4C0CFB0BF7D21B03FB0CF761EB070119
:1044F0000CFB0EF7B0EB074072EB17420CFB08F712
:1045000034BFA2EB0742B2EB074261EB17414FEA1F
:104510000C444FEA910706FB07FC4FEA1C4C0CFBCE
:104520000BF7B0EBC74072EB573203FB0CF734BF0D
:10453000A2EBC742B2EBC74261EB57310CFB0EF75F
:10454000B0EBC70072EB57720CFB08F734BFA2EB5D
:10455000C702B2EBC70261EB57714FEA816141EAD2
:1045600092114FEA826242EA90124FEA806004EBB5
:10457000CC04039F4FEAD13706FB07FC4FEA1C4CE3
:104580000CFB0BF7D21B03FB0CF761EB07010CFBD9
:104590000EF7B0EB074072EB17420CFB08F734BF85
:1045A000A2EB0742B2EB074261EB17414FEA8C5591
:1045B00004EB9C244FEA910706FB07FC4FEA1C4CD6
:1045C0000CFB0BF7B0EBC74072EB573203FB0CF759
:1045D00034BFA2EBC742B2EBC74261EB57310CFBD1
:1045E0000EF7B0EBC70072EB57720CFB08F734BF45
:1045F000A2EBC702B2EBC70261EB57714FEA8161D0
:1046000041EA92114FEA826242EA90124FEA8060D8
:1046100015EB4C2544F100044FEAD13706FB07FCAB
:104620004FEA1C4C0CFB0BF7D21B03FB0CF761EBA6
:1046300007010CFB0EF7B0EB074072EB17420CFBC7
:1046400008F734BFA2EB0742B2EB074261EB174118
:104650004FEA813141EA92414FEA823242EA904286
:104660004FEA80304FEA0C7615EB1C1544F100043C
:1046700048EA03434EEA0B484FF0000EB2EB080C39
:1046800071EB030724BF624639464EEB0E0E4FF026
:10469000000B0018524149414BEB0B0BB2EB080CDD
:1046A00071EB03077BF1000B24BF624639464EEBEA
:1046B0000E0E4FF0000B0018524149414BEB0B0B13
:1046C000B2EB080C71EB03077BF1000B24BF6246D1
:1046D00039464EEB0E0E51EA020718BF46F00106AE
:1046E00016EB0E7655F1000254F1000103D5BDE83A
:1046F0008901BDE80088BDE88901BDE80048B61918
:10470000524141EB0101A3F10103704780807F7E9C
:104710007D7C7B7A79787776767574737271717037
:104720006F6E6E6D6C6C6B6A6A69686867666665E9
:104730006464636362616160605F5F5E5E5D5D5C77
:104740005C5B5B5A5A5959585857575656555555E8
:104750005454535352525251515050504F4F4F4E48
:104760004E4D4D4D4C4C4C4B4B4B4A4A4A49494996
:1047700048484847474747464646454545444444D8
:104780004443434343424242424141419C46002B01
:1047900030D477002BD04FEA37071CB503B44FF065
:1047A00010004FF01001BAF1000F06D0BCF1000F5D
:1047B000DCBF40F0080040F008014FF000000FBCE3
:1047C000BDE810400BF1010BBBF1010F08BF5FEA20
:1047D000170722BF12F1010211F101014FF0004150
:1047E00043F1000300F0004043EA00007047F9D3B2
:1047F0005708D0E746EA06464FEA164613F1400F3F
:104800001FDD13F1200FDFBF16430A4600212033BE
:104810005B42BED0C3F1200746EA06464FEA164681
:1048200002FA07F746EA070622FA03F2C3F1200765
:1048300001FA07F742EA070221FA03F14FF00003F9
:10484000A7E746EA020646EA06464FEA164646EA61
:104850000106BCBF46EA0646360C4FF000034FF097
:1048600000024FF0000194E72DE9804C70B49A46A5
:10487000934691E8380007C831EA400C48BF34EA53
:10488000430C03D5FFF7E6FDFFF780FFF0BCBDE862
:10489000008C2DE9804C70B49A46934691E838001C
:1048A00007C810F0804F08BF13F0804F03D100F00D
:1048B00005F8FFF76BFFF0BCBDE8008C20F07F47E8
:1048C00023F07F4C80EA030000F0004007EB0C036C
:1048D000A3F57C53A3F1FE0392F0000F00F0B38028
:1048E00095F0000F00F077802DE901494FEA114063
:1048F00021EA00484FEA144624EA064700FB06FC7A
:1049000008FB06F607FB08F818EB06484CEB164CBC
:1049100000FB07F718EB07484CEB17404FEA124B28
:1049200022EA0B4E4FEA154625EA06470BFB06FC2A
:104930000EFB06F607FB0EFE1EEB064E4CEB164C6E
:104940000BFB07F71EEB074E4CEB174B18EB0B0856
:1049500040F1000018EB0E0B58EB000840F100008E
:104960008F1A4FF000014FF000063CBFC943661B91
:1049700014BFB5EB040C00213CBFC943F61B4FEA42
:10498000174427EA04454FEA1C472CEA074C04FB6E
:10499000076205FB07F70CFB05F616EB074642EB33
:1049A000174204FB0CFC16EB0C4642EB1C421BEBC3
:1049B000060658EB020241414EEA8E0E46EA9E067A
:1049C00001D5BDE80189B619524141EB0101A3F1BE
:1049D0000103BDE801894FEA144524EA05464FEA80
:1049E000114721EA074C05FB07F406FB07F70CFB10
:1049F00006F111EB074144EB174405FB0CFC11EBEE
:104A00000C4144EB1C444FEA124722EA074C05FBD9
:104A100007F206FB07F70CFB06F616EB074642EB20
:104A2000174205FB0CFC16EB0C4642EB1C456A18C2
:104A300054F1000148BF7047B619524141EB0101E2
:104A4000A3F10103704795F0000F37D04FEA1142F0
:104A500021EA02464FEA144724EA074C02FB07F119
:104A600006FB07F70CFB06F414EB074441EB174178
:104A700002FB0CFC14EB0C4441EB1C414FEA1547C4
:104A800025EA074C02FB07F506FB07F70CFB06F6C9
:104A900016EB074645EB174502FB0CFC16EB0C46E4
:104AA00045EB1C42121951F1000148BF7047B6197D
:104AB000524141EB0101A3F1010370474FEA144554
:104AC00024EA05464FEA114721EA074C05FB07F1A6
:104AD00006FB07F70CFB06F212EB074241EB17410E
:104AE00005FB0CFC12EB0C4251EB1C414FF0000695
:104AF00048BF7047921841EB0101A3F101037047D1
:104B0000490050EAC12018BF04204A0D18BF40F0E8
:104B1000010040F2FF72B2EB515F08BF40F00200AB
:104B2000012808BF0520704730380A2801D201202B
:104B3000704700207047000010B500290AD008789F
:104B4000002807D005487844FCF7ECFB002801D08A
:104B5000002010BD0248784410BD0000D2060000BD
:104B6000CA06000010B500290AD00878002807D02E
:104B700005487844FCF7D6FB002801D0002010BD82
:104B80000248784410BD0000C2060000BA060000CA
:104B900090EA010F48BF81F0004100F13482421ACF
:104BA0003CBF801A89184FEAD052A2EBD1534FF084
:104BB0007F4C1CEA410F18BF9CEA026F00F03B805B
:104BC0004FF0004C4CEA00204CEA012121FA03FC92
:104BD00010EB0C0C1ED202F1FF325FEA1C2040EBFE
:104BE000C25038BF70471CF07F0F4FEA400C18BF0F
:104BF000BCF17F4F38BF7047C3F12003994008BF15
:104C000020F00100BCF17F4F38BF7047A0F1C040D9
:104C100000F0EDB94FEA3C00000A40EBC25028BF5B
:104C20001CF0FF0F4FEA400CE6D018BFBCF17F4FDD
:104C300038BF7047EAE79CEA026F05D010EA5C0FC4
:104C400008BF00F00040704710B500F08AF900BFBF
:104C500064FBBE3E10B500F033F80CBF012000200D
:104C600010BD10B500F02CF814BF0120002010BDBD
:104C700010B500F08DF88CBF0120002010BD10B5DC
:104C800000F086F82CBF0120002010BD10B500F008
:104C9000B3F894BF0120002010BD10B500F0ACF8AF
:104CA00034BF0120002010BD401058BFC0F140406B
:104CB000491058BFC1F140418142EFF30080704775
:104CC00050EA010C00F113801CF5000F58BFBCF531
:104CD000000F01D48842704707D710F5000F58BF66
:104CE00011F5000F15D488427047894270471CF5B2
:104CF000000F04D5BCF5000FF7D5814270474FF087
:104D0000807C1CEB400F38BF1CEB410F01D281426D
:104D1000704710B500F025F9922449004FF000507B
:104D20004FF08051FFF7C0BF41000B0ED3F19E0240
:104D300008D950F400034FEA032323FA02F048BFD6
:104D40004042704710B500F00CF900BF4992248032
:104D5000002070476FF0004282EA20007047000098
:104D600010F0004148BF4042B0FA80F310FA03F25D
:104D7000C3F19D030BD051EAC35101EB122053063E
:104D800038BF704700F1010008BF20F001007047F4
:104D900050EA010C00F113801CF5000F58BFBCF560
:104DA000000F01D48842704707D710F5000F58BF95
:104DB00011F5000F15D488427047894270471CF5E1
:104DC000000F04D5BCF5000FF7D5814270474FF0B6
:104DD000807C1CEB400F38BF1CEB410F01D281429D
:104DE000704710B500F0BDF8922449004FF0805094
:104DF0004FF00051FFF758BF50EA010C00F113804B
:104E00001CF5000F58BFBCF5000F01D48842704755
:104E100007D710F5000F58BF11F5000F15D48842C1
:104E20007047894270471CF5000F04D5BCF5000F90
:104E3000F7D5814270474FF0807C1CEB400F38BFA4
:104E40001CEB410F01D28142704710B500F089F888
:104E5000922449004FF000504FF08051FFF724BFDB
:104E60004FF47F0C1CEAD0121EBF1CEAD11392EA49
:104E70000C0F93EA0C0F00F0478090EA010F48BF37
:104E800042F480724FF0004C4CEA00204CEA0121C1
:104E900002EB0302A0FB0113A2F50002002918BFD8
:104EA00043F001035B0028BF4FEA330342EB224289
:104EB0005FEA132C4CEBC2502EBFBCEB436FB2F534
:104EC0007C0F70474FEA036CBCF1004F08BF20F025
:104ED0000100B2F57C0F38BF70470BD582F0FF029E
:104EE00012F5803FC8BF704700F1C040D8BF00F046
:104EF0000040704700F5000C5FEA4C0C48BF70475B
:104F0000B0F1C04000F073B80CEAD11390EA010F81
:104F100048BF42F48072624538BF634504D280EADC
:104F2000010000F00040704710B500F01AF800BF13
:104F30008900013E00F007B800F009B85FEA410CB3
:104F40005FEA1C6C08D080EA010000F050B85FEA0C
:104F5000400C5FEA1C6CF6D14FF00040A0F58000D9
:104F600070470EF1020E2EF0030E5EF8044B244241
:104F700004D44FEA4102B2F17F4F11D84FEA400307
:104F8000B3F17F4F0CD80ED14FEAD07C0CEB4C0C18
:104F90000CF1020CB2F17F4F08BF4CEBD17C04E066
:104FA0004FF0080C01E04FEAD17C0CEB4C0324FAE3
:104FB00003F404F00704B4F1040C06D20EEB840CE5
:104FC000BDE810404CF0010C6047DFE80CF007082A
:104FD00002024FF00040A0F5800010BD08464200DC
:104FE00018BFD2F1807288BF00F0004010BDFF21D1
:104FF00041EAD050C005704790EA010F48BF81F0E8
:1050000000413FF5CCAD421A04D882F00042A0EB3B
:10501000020011444FEAD052A2EBD1534FF07F4C23
:105020001CEA410F18BF9CEA026F4AD04FF0004CB7
:105030004CEA00204CEA012121FA03FCB0EB0C0CF5
:105040000FD412F0FE0F36D05FEA4C001DD50012CF
:1050500040EBC25038BF70471CF03F0F18BF70477D
:105060000BE05FEA1C20A2F1010240EBC25038BF06
:1050700070471CF07F0F18BF7047C3F120039940A1
:1050800014BF401E20F0010070474FEA1223800831
:1050900008BF7047B0FA80FCA2EB0C02CCF1280CE0
:1050A00060FA0CF093EA122F04BF00EBC250704775
:1050B0004FEAC3707047130A5FEADC1008BF7047FD
:1050C000F6E79CEA026F04D010EA5C0F08BF0020EC
:1050D000704710B5FFF745FF40DFF63E81F0004016
:1050E0007047FBF729BDFBF75DBE00000000000024
:1050F0000000000030313233343536373839414220
:105100004344454640305800303132333435363729
:1051100038396162636465664030780004000008D5
:1051200000000000000000020001000010303132D9
:1051300033343536373839616263646566787000B8
:1051400030313233343536373839414243444546BD
:105150005850000002400000000000A000000000C5
:1051600005400000000000C8000000000C400000E6
:105170000000409C00000000194000000020BCBE60
:105180000000000034400000BFC91B8E0000000476
:10519000B5400000504BCFD06607E2CF01000000C1
:1051A0006C4100003E8251AADFEEA73401000000EE
:1051B000D9420000DCB5A0E23A301F97FFFFFFFFA5
:1051C000B4450000FD25A0C8E9A3C14FFFFFFFFFC4
:1051D000FF3F00000000008000000000FF3F0000D3
:1051E000000000800000000054454D503A20256426
:1051F00020430D0A00000000445300080000002076
:105200006000000024010008A453000800040020EE
:1052100020100000440100081C00000043000000B2
:10522000F8FFFFFF0C0000000E0000000F00000060
:105230002E0000001001000043000000F8FFFFFFF7
:105240000040404040404040404041414141414099
:10525000404040404040404040404040404040404E
:1052600040050202020202020202020202020202DD
:1052700002202020202020202020200202020202E2
:10528000020290909090909010101010101010103A
:105290001010101010101010101010100202020246
:1052A000020288888888888808080808080808088A
:1052B0000808080808080808080808080202020286
:1052C000400000000000000000000000000000009E
:1052D00000000000000000000000000000000000CE
:1052E00000000000000000000000000000000000BE
:1052F00000000000000000000000000000000000AE
:10530000000000000000000000000000000000009D
:10531000000000000000000000000000000000008D
:10532000000000000000000000000000000000007D
:10533000000000000000000000000000000000006D
:10534000000000005902000000127A000902430028
:10535000020100803209040000010202010005245C
:1053600000100105240100010424020605240600A2
:10537000010705820340000209040100020A00003F
:1053800000070581024000000705030240000012EB
:1053900001100102000040830425F100000000001C
:0453A0000100000008
:0400000508000235B8
:00000001FF
